:400000000040002011000000110700001107000080B500AF00F080FB80B500AF274B12221A6002F01FFA264B181C02F071F8012002F028FA0C2002F0DFF8224B224A1A6044
:40004000224B8022D2051A60214B214A126802210A431A601F4B204A1A60204B1F4A126808218A431A60FA23DB00181C02F0B4F91B4B181C02F056FC1A4BFE2212021A601D
:40008000194B1A4A1A601A4BFE2212021A60164B184A1A60184B802212061A60174B40221A60174B41221A60084B8022D2051A60024B00221A60BD4680BDC04630001040A5
:4000C000001BB70004010B40060000800C020B4078002E407C002E406A2D00006CF02E40DC050000000301400000014040FF00800403014041FF008008010B4014010140F7
:400100001001014080B582B000AF72B6414B00221A60FB1D00221A7023E0FB1D1A78131C5B009B185B003C4A9B183B603B681A78597809020A43997809040A43DB781B06ED
:4001400013431A1C3B6819795B791B020B439BB2101C191C00F064FBFB1D1A78FB1D01321A70FB1D1B78012BD7D92C4A2C4B101C191C00F065FB2B4B8022D2021A602A4B03
:4001800003221A60294B992212041A60284B294A1A60294B802212061A60284B274A1278D2B202210A43D2B21A70254B244A1278D2B23C218A43D2B214210A43D2B21A703F
:4001C0001E4B1E4A1278D2B216210A43D2B21A701C4B01221A601C4B06221A601B4B81221A601B4B8822D2031A601A4B802212021A60194B01221A60184B01221A60184BA6
:4002000001221A60FFF708FF00F05AFBBD4602B080BDC0466CF02E4034280100402801005C28010014000B400000024000500F4020500F400400990024500F4000700F40B4
:4002400001700F40000004400800044000020440080204400C02044018020440000404401804044010B5064C2378002B07D1054B002B02D0044800E000BF0123237010BDD1
:40028000D803002000000000A826010008B5084B002B03D00748084900E000BF07480368002B03D0064B002B00D0984708BDC04600000000A8260100DC030020C8000020C3
:4002C0000000000080B500AF00F07EF800F016FA021C354B1A6002F047FF00F079F9334B1B78012B12D100F045F9314B1B78002B04D02F4B00221A7001F0F2FA2D4B1B7898
:400300001A1C0123134001D000F074F82A4B1B78002B06D0284B00221A70002000F08EFB2CE02BE002F020FF032002F015FF031C1A1C224B1A7001F0F4FE031C1A1C204BE2
:400340001A701E4B1B78032B0CD104F0F7F9031C042B04D004F0F2F9031C062B09D102F00FFB06E004F0EAF9031C022B01D002F0EDFA134B1B78181C01F0D7FE00F0BEF99C
:40038000021C094B1B689A42CCD00E4B1B78002B08D000F045FB02F05FFB02F075FB02F025FB98E797E7C046F4030020F8030020CC000020F9030020FA030020032500204F
:4003C00004250020FB03002080B500AF62B6084B181C00F0DDFA062001F0E2FD002001F0E5FB00F075FE00F065F9BD4680BDC0464D04000090B583B000AF134B1B88013BB9
:400400009AB2114B1A80104B1B88002B18D10E4B05221A80002000F0BBFEC04600F026FF031C002BFAD101F093FBFC1D002001F0AFFB031C2370FB1D1B78181C00F076F813
:40044000BD4603B090BDC046CE00002080B584B000AF786039607B684C2B50D87B689A00294BD3181B689F46284B01221A7047E0264B01221A7043E0254B1B78042B03D1A8
:40048000244B01221A703BE03AE0204B01221A7036E0204B01221A7032E01F4A3B68111C1A1C0223081C111C1A1C02F044FE1B4B01221A7024E0194B00221A70184B002298
:4004C0001A70184B01221A7000F054F818E03B68FB60FB689B890F2B07D1FB685B681A780F4B1A700F4B01221A700B4B18680DF079F805E03B681A780B4B1A7000E0C046D0
:40050000BD4604B080BDC04600270100FA03002014250020FB03002008250020F8030020F9030020FC030020FD03002080B586B000AF021CFB1D1A700C4B1B78002B12D170
:400540003B1C0C330E221A813B1C0C33FA1D1A603B1C0C3301229A80054B3A1C0C321868111C0CF0F5FFBD4606B080BDFD0300200825002080B584B000AF124B1B78002B09
:400580001DD0104B00221A700F4B1A783B1C0C331A703B1C0C3300225A703B1C0F221A813B1C3A1C0C321A603B1C02229A803A1C064B101C00211A1C00230DF051FCBD4602
:4005C00004B080BDFC030020F90300200825002080B582B000AFFB1D00221A702A4B1A782A4B1B789A4209D0FB1D01221A70274B1B78032B02D1264B01221A60234B1A780B
:40060000214B1A70204B1B78032B10D0042B2ED0022B00D032E0FB1D1B78002B06D0FB1D00221A70002001F0BBFC27E026E0184B1B685A1E164B1A60154B1B68002B15D10A
:40064000062001F0ADFC01F0C3FC031C012B06D1002001F07FFC0E4B05221A6006E0012001F078FC0A4B14221A6007E006E0012001F070FC002001F093FCC046FB1D0022C6
:400680001A70BD4602B080BDD000002014250020D400002080B500AF054B1B681A1C0A32034B1A60042002F057F8BD4680BDC0460004002080B500AF0F4B0820191C02F034
:4006C00081F801F029FF0020012101F063FF0020012101F08FFF4023FF330020191C01F0F3FF012001F0BEFF082002F0E5F801F0E9FEBD4680BDC0469506000080B500AFE2
:40070000024B1B68181CBD4680BDC0460004002080B500AFFEE7C04680B586B000AF224B7B61224B3B61204B7B6135E03B691B68FB603B695B68BB603B699B683B6000234B
:400740007B600CE0FB681A68BB681A60BB680433BB60FB680433FB607B6804337B607A683B689A42EED13B69DB683B6000237B6008E0BB6800221A60BB680433BB607B6832
:4007800004337B607A683B689A42F2D13B6910333B617B69013B7B617B69002BC6D102F095FCFFF78FFDFEE701000000C42D010080B582B000AF154B144A126801218A43C4
:4007C0001A6000237B600FE07B68032B04D8104B7A689200D35800E00E4B0F4A796889008B507B6801337B607B682F2BECD9FFF789FC0A4B00221A60044B044A126801213B
:400800000A431A60BD4602B080BDC04600001040000000001107000000000020C000002080B582B000AF786039607A683B68101C00211A1C02F088FCBD4602B080BDC04694
:4008400080B586B000AF7860396000233B6100237B612EE07B699B007A68D3181B68BB603B1C0F33BA681A70BB68FF229343BB6017E03B695B003A68D3181B781A1CBB684E
:40088000D3183A69520039688A1852781A703B6901333B613B1C0F331A783B1C0F33013A1A703B1C0F331B78002BE2D17B6901337B617B69062BCDD9BD4606B080BDC0460F
:4008C00080B500AF064B03221A60064B03221A60054B00221A60012000F008F8BD4680BD3000304030003140000E3F4080B584B000AF021CFB1D1A70154B1B68FB60FB1DFB
:400900001B78002B05D0FB68802212061343FB6003E0FB685B005B08FB600D4BFA681A600C4B1B68FB60FB1D1B78002B05D0FB68982292051343FB6003E0FA68064B134095
:40094000FB60044BFA681A60BD4604B080BDC04680033A4008010B40FFFFFFD980B500AF064B00221A70064B00221A70054B00221A7000F009F8BD4680BDC0461C2500205E
:400980001A2500201B25002080B500AFBD4680BD90B585B000AF78603B1C0E3301221A80194B1B78002B04D1FFF7D8FF164B01221A707B68002B1FD0144B7A681A603C1C1C
:4009C0000E34134A134B101C191C172202F0F6FB031C23803B1C0E331B88002B0CD10E4B01221A703C1C0E340C4B181C102112220DF01EFA031C23803B1C0E331B88181CA2
:400A0000BD4605B090BDC046080400200C250020FD0C000010040020142500209429010080B500AF02F0B6FB02F09EFB024B00221A70BD4680BDC0461425002090B585B0B6
:400A400000AF021CFB1D1A702A4B1B78042B44D1294B1B78DBB21A1C042313403DD1FB1D1B78002B0DD1254B1E221A82234B5B68902252001A80214B5B68A02252005A807D
:400A800010E0FB1D1B78012B0CD11C4B96221A821A4B5B68C822D2001A80184B5B68FA2212015A80164BFA1D12781A703C1C0E34124B181C0BF016FC031C23803B1C0E330C
:400AC0001B88002B08D10C4B1B78DBB204221343DAB2094B1A7005E004E03B1C0E33832252001A803B1C0E331B88181CBD4605B090BDC046142500201C2500203401002077
:400B00001B25002080B582B000AF78607B681B781A1C7B6801331B781B029BB213439BB2181CBD4602B080BD90B585B000AF78603B1C0F3300221A707B689A890B239A4288
:400B400037D17B681A1D7B683C1C0F34101C00211A1C40230DF084F9031C23703B1C0F331B78002B1DD17B685B68181CFFF7CAFF031C1A1C022313409BB2002B08D0104B6D
:400B80001B68822251007A68081C111C984708E00B4B1B680622111CFF317A68081C111C9847084B1B78DBB201229343DAB2054B1A703B1C0F331B78181CBD4605B090BD1C
:400BC0000C2500201C25002090B585B000AF78603C1C0F347B68181CFFF7A6FF031C2370144B1B78DBB21A1C012313401FD13B1C0F331B78002B16D03B1C083312229A701A
:400C00007B689A893B1C08331A803B1C08333A1C0F321278DA707B683A1C08321868111C0CF078FC03E07B6818680CF0DBFCBD4605B090BD1C25002080B582B000AF786088
:400C4000BD4602B080BDC04680B500AF034B00225A70024B00221A70BD4680BD1825002080B582B000AF7860BD4602B080BDC04680B500AFBD4680BD80B584B000AF7860CE
:400C80003B1C0E3300221A707B689B79002B1CD13B1C0F3300221A7012E03B1C0F331B787A68D35C002B04D03B1C0E3301221A700BE03B1C0F331A783B1C0F3301321A70BD
:400CC0003B1C0F331B78052BE7D93B1C0E331B78181CBD4604B080BD80B582B000AF021CBB1D1A80BD4602B080BDC04680B582B000AF7860BD4602B080BDC04680B584B098
:400D000000AF021C3960FB1D1A70904B1B78DBB201221343DAB28D4B1A70FB1D1B78712B00D9F7E09A008A4BD3181B689F463B1C0C3308221A703B1C0C3300225A703B1C6D
:400D40000C33181C03F029FD3B1C0C3301225A703B1C0C33181C03F020FD7E4B1B68181CFFF78AFF031C002B05D07A4B1B68181C02F0FEF90FE0784B1A78784B1A70784BB3
:400D80001A78764B5A70774B1A78744B9A70734B181C02F0EDF903200BF066F9724B04221A70B8E03B68181CFFF75AFFB3E03B681A786E4B1A70AEE0644B1B78DBB21A1CE9
:400DC000202313400ED16A4B1B78102B02D1684B0522DA70674B1A78654B101C191C0BF04BFA98E097E03B68181CFFF77FFF92E03B68181CFFF77AFF5B4B02221A708AE0BF
:400E0000594B04221A7086E0574B1B78022B34D04E4B1B78DBB21A1C012313402DD04B4B1B78DBB21A1C042313400BD04E4B03221A70464B1B78DBB204229343DAB2434BDF
:400E40001A701AE0414B1B78DBB21A1C082313400BD0454B04221A703C4B1B78DBB208229343DAB2394B1A7007E03F4B1B78032B03D13D4B04221A704DE04CE03B681B8855
:400E8000181CFFF729FF46E03A4A3B68111C1A1C0223081C111C1A1C02F04DF9354B1B789A00354BD318354A111C1A1C0423081C111C1A1C02F03FF9FFF7DAFE2BE0FFF7AB
:400EC000C3FE28E03B685B88162B05D83B1C0E333A6852881A8003E03B1C0E3317221A803B683A1C0E321288198800230904090C1B0C1B040B43181C111C0CF017FB0AE0E3
:400F00003B68181CFFF760FE05E03B68181CFFF793FE00E0C0460D4B1B78DBB21A1C112313400FD0094B1B78DBB201229343DAB2064B1A70124B1B68FA1D11783A68081C2F
:400F4000111C9847BD4604B080BDC0461C250020002B0100E00000207CF1FF0FD80000207DF1FF0F7BF1FF0F142500201A2500207C010020182500208029010010250020C4
:400F80000C25002080B582B000AF00237B6007E00A4A7B68D31800221A707B6801337B607B68002BF4D000F00BF8002000F0AAFB00F078F9BD4602B080BDC04638250020D5
:400FC00080B582B000AF244B1B68DAB2234B1A70224B1B787B607B680F2293437B60204B1B78DBB21A1C0F2313407A6813437B607B68F02293437B60194B1B78DBB21A1C0C
:40100000F02313407A6813437B60134B7A681A60144B154A1A60154B154A1A60154B1B687B607B680F2293437B607B68062213437B60104B7A681A60102001F053FC0E4BCD
:401040001020191C01F0BEFB1020032101F0E0FBBD4602B080BDC04600FF28402025002062F1FF0F0800284000020001040028400008A00100040240451C000080B582B086
:4010800000AF01F011F800F0C7FF0020002100F0D3FF0020002101F017F8FF2000F0A6FF402000F0EBFF084B1B687B607B68074A13437B60044B7A681A60102001F0FCFBC6
:4010C000BD4602B080BDC046040028400010088080B500AF0C4B1B78002B04D1FFF752FF094B01221A70FFF7C9FF00F015FE074B01221A70064B064A12688021C9030A4349
:401100001A60BD4680BDC046B1100020A81000200400284080B584B000AF021CFB1D1A70FB1D1A78FB1D01321A70FB1D1B78012B00D10BE0FB1D1B78074A101C191C00F093
:40114000F9FA031CFB60FB68002BE9D0FB1D1B78181CBD4604B080BDB010002080B582B000AF7860084B00221A707B68DAB2074B1A70054B81221A707B68181C00F080F9D3
:40118000BD4602B080BDC046AA100020AB10002080B586B000AF78602E4A7B68D3181A782D4B1A702D4A7B68D3181B787B617B69002B01D101237B61264A7B68D3181B7850
:4011C0001A1C7B69D318013BFB6000233B610AE0234A3B69D3181A7822493B69CB181A703B6901333B613B69002BF1D000233B611CE0194B1B78DBB21A1C3B699A420BD8C4
:401200003A69FB689A4207D8154A3B69101C191C012200F0B1FA06E0114A3B69101C191C002200F0A9FA3B6901333B613B69002BDFD0094B1B78DBB2002B08D10A4B4122AE
:401240001A70054B1B78DBB2181C00F019F9BD4606B080BD202D0100AB100020242D0100B010002024250020AA10002080B500AF044B1B78DBB21A1C01231340181CBD4673
:4012800080BDC046AA10002080B582B000AF7860034B7A685200D35A181CBD4602B080BDAC10002080B582B000AF00237B6006E07B68181C00F064F87B6801337B607B6840
:4012C000002BF5D0BD4602B080BDC04690B587B000AF786002237B610023391C13311A1C9218D3180B7000223B1C123392001A703C1C113400F015FF031C23701E4B7A6987
:401300009200D3581B68FB603B1C12331B780F22111C99400B1CDA43FB681340FB603B1C12331B780422141C9C40231CFA681343FB60124B7A699200D358104A79698900E2
:401340008A581268391C133109780720041C8C40211CC9430A401A60074B7A699200D358FA681A603B1C11331B78181C00F0DDFEBD4607B090BDC046D82C0100F02C0100AD
:4013800090B589B000AF786002237B6100223B1C133392001A700023391C12311A1C9218D3180B700023FB61314A7B68D3181B78BB61304B7A699200D3582E4A79698900D6
:4013C0008A581268391C133109780F20041C8C40211CC9430A401A60BB69022B01D10023BB61BB69012B01D00623FB613C1C113400F097FE031C23701F4B7A699200D35869
:401400001B68FB603B1C12331B780722111C99400B1CDA43FB681340FB603B1C12331B78FA69141C9C40231CFA681343FB60124B7A699200D358FA681A603B1C11331B7824
:40144000181C00F072FE0D4B7A699200D3580B4A796989008A58126800210120041C8C40211CC9430A401A60BD4609B090BDC04638250020D82C0100F02C0100082D0100A5
:4014800090B589B000AF78603B1C173300221A703B1C17331A785E4B9200D358BB615D4A7B68101C191C00F045F9031C3B61BA69594B9A420AD83B69BA69111C99400B1CD8
:4014C000BB61BB69FF2212041343BB6100F0ECFD00F0A2FD514A7B68D3181B78013B9BB2181C002100F0A8FD4D4A7B68D3181B78013B9BB2181C002100F0E6FDFF2000F074
:4015000075FD402000F0BAFD464B1B78002B39D0102001F0E7F9444B1B68FB61FB6940221343FB61FB6980229343FB613B1C0F333B497A688A1812781A703B1C0E333749EE
:401540007A688A1812781A703B1C0F331A78131C1B039B1A1B041A1C3B1C0E331B78391C173108782A49800041584B439A4203D2FB6980221343FB612B4BFA691A60102003
:4015800001F09AF9102001F0ADF9284B1B68FB61FA69274B1340FB61264A7B68D3181B781A1C25497B68CB181B781B041343FA691343FB611D4BFA691A601B4B1B68FB6128
:4015C000FA691E4B1340FB61FB691D4A1343FB61102001F071F97B68181CFFF777FE3C1C0D3400F09EFD031C23700F4BFA691A60002000F08DFD134BBA691A603B1C0D33AD
:401600001B78181C00F091FDBD4609B090BDC0468401002034250020FFFFFEFF3C25002028250020A9100020040028400800284000FF80FF2C25002030250020FF1FDFFF3A
:40164000200020000C00284080B586B000AF7860234B1B6899B2234B7A685200D15200237B61214B7A699200D258204B9A4215D81F4A7B68101C191C00F05CF8031C3B61D9
:40168000184B7A685200D35A1A1C3B69111C19410B1C99B2134B7A685200D1527B68181CFFF76EFE102001F01DF9124B1B68FB60FA68114B1340FB60FB68A02212021343F8
:4016C000FB600C4BFA681A600C4B0C4A11680C4A0A401A60102001F0EFF8BD4606B080BD0C002840AC10002084010020FFFFFEFF3425002004002840FF1FDFFF08002840DD
:4017000000FF80FF80B584B000AF78607A68032313407B60064B1B68FB607B685B02FA681343FB60024BFA681A60BD4604B080BD0400284080B584B000AF786039603B68CE
:40174000DB08FB603A680723134001229A403B1C0B331A707A68FB68D3181B783A1C0B3212781340DBB2002B01D0012300E00023181CBD4604B080BD80B586B000AFF86073
:40178000B9607A60BB68DB087B61BA680723134001229A403B1C13331A707B68002B0DD0FA687B69D318F9687A698A1811783A1C133212780A43D2B21A700EE0FA687B6952
:4017C000D318F9687A698A181278391C13310978C943C9B20A40D2B21A70BD4606B080BD80B584B000AF78600023BB600023FB6014E07B68181CFFF7B1FCC046FFF736FD16
:40180000031C012BFAD07B68181CFFF73DFD031CBA68D318BB60FB680133FB60FB68002BE7D0BB689BB2181CBD4604B080BDC04680B584B000AF78603B1C0F3315497A6867
:401840008A1812781A70144B7A685200D15A134B7A685200D152124A7B68D31800221A70104A7B68D31800221A703B1C0F331B783A1C0F3212780C49895C0C4AD154064B42
:401880007A685200D15A0A4B7A685200D152BD4604B080BDD42C0100AC100020B4100020B8100020BC10002090010020C41000204C25002080B582B000AF78607B68181C59
:4018C000FFF74CFCC046FFF7D1FC031C002BFAD17B68181CFFF7ACFFBD4602B080BDC04680B582B000AF00237B6006E07B68181CFFF7E0FF7B6801337B607B68002BF5D071
:40190000BD4602B080BDC04690B587B000AF78603B1C0F337A497A688A1812781A703B1C0F331A783B1C0E3376498A5C1A703B1C1033754A796849008A5A1A80734B1B7874
:40194000002B15D0724B7A685200D35A3C1C10343A1C10321288101C191C00F055F9031C23806B4B7A685200391C10310988D1527B68DAB26749644B081C111C1A1C01F090
:40198000B9F9654B7A685200D35A3A1C103212889A4212D3614A7B68D31800221A705E4B7A685200D25A3B1C1233391C103109888A1A1A8001237B610CE0574B7A68520080
:4019C000D15A3B1C12333A1C103212888A1A1A8000237B617B69002B28D13B1C0F331B784F4AD35C3A1C123212889A421ED94B4A7B68D3181A784B497B68CB181B789A42F0
:401A000009D37B68181CFFF713FF444A7B68D31800221A704CE0414A7B68D3181B780133DAB23E497B68CB181A7041E03B1C0E331B789BB23A1C123212889A420CD93B1C0F
:401A40000F331B78364AD35C3A1C123212889A422ED27B69002B2BD12F4B7A685200D35A1B02BB60304A7B68D3181B78BA681343BB603B1C10331B88BA68D318BB60264B70
:401A80007A685200D35ABA68D31ABB60BB681B0A99B2214B7A685200D152BB68DAB222497B68CB181A701D4A7B68D31800221A703B1C0E331B789BB23A1C123212889A4272
:401AC00016D97B69002B13D03B1C12331B88FF2B05D9164A7B68D318FF221A700DE03B1C12331B88DAB211497B68CB181A7004E00E4A7B68D31800221A70BD4607B090BDC6
:401B0000D42C010040250020AC100020890100204C25002068250020B4100020442500204825002088010020B8100020BC10002080B582B000AF78607B68181C00F066F990
:401B40007B68181CFFF7E0FEBD4602B080BDC04680B582B000AF00237B6011E00B4A7B68101C191CFFF7E6FD031C3B603B68002B03D07B68181CFFF7DBFF7B6801337B60D7
:401B80007B68002BEAD0BD4602B080BDB010002080B582B000AF7860034A7B68D3181B78181CBD4602B080BDBC10002080B584B000AF78603B1C0F3300221A7001213B1C2F
:401BC0000E333A1C0F3212788A181A703B1C0F331B780C4A101C191C0122FFF7CDFD3B1C0F331A783B1C0F3301321A703A1C0F323B1C0E3312781B789A42E7D3BD4604B077
:401C000080BDC046B010002080B584B000AF0A1CBB1D011C19803B1D1A80BB1D1A883B1D1B88D318FB603B1D1B885B00FA68D318FB60FB689B08FB60FB689BB2181CBD46C2
:401C400004B080BD80B500AF102000F04BFE2C4B01221A602B4B1B78DBB2181CFFF7F4FC294B1B78DBB2DBB25BB2002B08DA264B1B78DBB201229343DAB2234B1A703AE0FF
:401C8000204B1B78DBB2181CFFF744FA031C1A1C1C4B1A701B4B1B78DBB2002B06D1194B1B78DBB2181CFFF7EBFB24E0164B1B78DBB201229343DAB2134B1A70124B1B78ED
:401CC000DBB21A1C4023134015D0104B00221A700DE00E4B1B780D4A12780D49895C0D4AD1540A4B1B780133DAB2084B1A70074B1B78002BEDD0102000F0DEFDBD4680BD81
:401D000014002840AB100020AA100020C810002024250020B010002080B582B000AF324B01221A70304B01225A702F4B01229A702D4B0C22DA802C4B2C4A9A802A4B2C4AF0
:401D40009A6000F09BF800233B6007E0294B3A6892002949D1503B6801333B60224B5B781A1C3B689A42F1D800237B600CE0234A7B68D31804221A70214A7B68D3180122A5
:401D80001A707B6801337B607B68002BEFD000F081F8154A1B4B101C191C00F0F5FE124B181C00F003FF184B01221A700E4A154B101C191C00F0E8FE0B4B181C00F01AFF53
:401DC000094B181C00F080F800237B6006E07B68181C00F01BF87B6801337B607B68002BF5D0BD4602B080BD68250020CC040000382D0100840100200000FF0F282500203B
:401E00003C2500209A0D0000A910002080B584B000AF7860144A7B68D3181B78FB603B1C0B331249FA688A1812781A703B1C0B331B785B08DAB20E49FB68CB181A703B1CFA
:401E40000B331B785B08DAB20A49FB68CB181A703B1C0B331B78DB08DAB20749FB68CB181A70BD4604B080BDD42C01008C01002040250020482500205025002080B500AF9B
:401E8000034B034A126840218A431A60BD4680BD0400284080B582B000AF094B1B687B607A68084B13407B607B688022920013437B60034B7A681A60BD4602B080BDC046A4
:401EC00008002840FFFCFFFC80B584B000AF78600023FB6017E01A4AFB68D3181B785B08DAB21849FB68CB181A70154AFB68D3181B7801335B08DAB21149FB68CB181A7025
:401F0000FB680133FB607B681B781A1CFB689A42E1D8102000F0E6FC0B4B1B68BB60BA680A4B1340BB60BB68094A1343BB60064BBA681A60102000F0BFFCBD4604B080BD8D
:401F40002C2500203025002008002840FFFCFFFC0002000180B584B000AF021CFB1D1A700E4B1B68DAB23B1C0F3340218A431A70FB1D1B789B01DAB240231340D9B23B1C16
:401F80000F333A1C0F3212780A431A70034B3A1C0F3212781A60BD4604B080BD0002044080B582B000AF021CFB1D1A70064B064A1168064A1140FA1D127892040A431A6035
:401FC000BD4602B080BDC04608020440FFFFE3FF80B500AF044B1A68402313409B09DBB2181CBD4680BDC0460402044080B582B000AF7860C046064B1B68002BFBDB044B43
:402000007A68120203490A431A60BD4602B080BD000001404000008080B500AFC046044B1B68002BFBDB024B024A1A60BD4680BD000001404000004080B584B000AF0A1C95
:40204000BB1D011C19807B1D1A700B4B1A6807231340FB60BB1D1B881A02FB681A437B1D1B78D900FF230B401343BB60024BBA681A60BD4604B080BD0003014080B582B03F
:4020800000AF7860C046064B1B68002BFBDB044B7A68120203490A431A60BD4602B080BD000001404100008080B500AFC046044B1B68002BFBDB024B024A1A60BD4680BD62
:4020C000000001404100004080B584B000AF0A1CBB1D011C19807B1D1A700B4B1A6807231340FB60BB1D1B881A02FB681A437B1D1B78D900FF230B401343BB60024BBA68D8
:402100001A60BD4604B080BD04030140000000000230800803D00138FDD1C046C046C0467047EFF3108072B6704780F31088704780B500AF0B4B0B4A126801218A431A6007
:40214000094B094A126830218A4310210A431A60054B054A126807218A4301210A431A60BD4680BD00F02E4000FF2E4080B500AF0E4B0E4A126802218A431A600C4B0C4A00
:40218000126807218A4302210A431A60084B084A126830218A4320210A431A60034B034A126801210A431A60BD4680BD00F02E4000FF2E4090B585B000AF78603C1C0F34DC
:4021C000FFF7AFFF031C2370094B796807220A40D104074A1068074A02400A431A603B1C0F331B78181CFFF7A0FFBD4605B090BD00010B40FFFFC7FF90B585B000AF7860DE
:402200007B68022B00D8BAE07B68302B00D9B6E05E4B1B78DBB21A1C7B689A420AD35C4A3B1C0F3312781A705A4A3B1C0E3312781A703FE0584B1B78DBB21A1C7B689A425A
:402240000AD3564A3B1C0F3312781A70544A3B1C0E3312781A702DE0524B1B78DBB21A1C7B689A420AD3504A3B1C0F3312781A704E4A3B1C0E3312781A701BE04C4B1B789E
:40228000DBB21A1C7B689A420AD34A4A3B1C0F3312781A70484A3B1C0E3312781A7009E0464A3B1C0F3312781A70454A3B1C0E3312781A707B68DA1E3B1C0C3341498A5CFE
:4022C0001A703C1C0B34FFF72CFF031C23703B1C0C331B782F2B0DD97B682A2B0AD93A4B19221A600520FFF713FF3B1C0D3319221A7007E0344B1B68D9B23B1C0D333F2237
:402300000A401A703A1C0C323B1C0D3312781B789A4208D22C4B7A68033A2A498A5C1A600520FFF7F5FE294B7A68254952181278D2B21A60264B3A1C0F3212781A60254B22
:402340003A1C0E3212781A60052000F0EBFA3A1C0C323B1C0D3312781B789A4208D91A4B7A68033A17498A5C1A600520FFF7D0FE3B1C0B331B78181CFFF7D7FE02E000206E
:4023800000F0C6FABD4605B090BDC046C0F1FF0FC1F1FF0FC2F1FF0FC3F1FF0FC4F1FF0FC5F1FF0FC6F1FF0FC7F1FF0FC8F1FF0FC9F1FF0FCAF1FF0FCBF1FF0FCCF1FF0F61
:4023C000CDF1FF0F702D01002CFF0B4028FF0B401CFF0B4020FF0B4080B584B000AF78600023FB60154B154A126801210A431A60134B144A1A60144B134A12688021090213
:402400000A431A607B68002B13D01023FB600DE0012000F087FA00F019F8031C002B02D00023FB6005E07B68013B7B607B68002BEED1FB68181CBD4604B080BD60F02E4047
:4024400078002E400220000010002E4080B500AF034B1A6801231340181CBD4680BDC0460C002E4080B500AFFFF762FE044B044A1268802109060A431A60BD4680BDC046A9
:4024800000F02E4080B584B000AF78600C4B1A6801231340FB607B68002B02D0012B03D005E0FFF745FE06E0FFF760FE03E0002000F02EFAC046FB68181CBD4604B080BD40
:4024C00000F02E4090B583B000AFFC1DFFF729FE031C2370074B074A1268C02109020A431A60FB1D1B78181CFFF71FFEBD4603B090BDC04600010B4080B500AF054B1A68A2
:40250000C0231B02134001D0012300E00023181CBD4680BD00010B4090B583B000AFFC1DFFF7FFFD031C23700C4B0C4A11680C4A0A408021C9010A431A60084B074A116897
:40254000074A0A40802109020A431A60FB1D1B78181CFFF7EAFDBD4603B090BD00010B40FF3FFFFF80B582B000AF78607B68022B02D9002000F0CCF9054B1A687B68DB00C8
:402580000133DA4001231340181CBD4602B080BD10020B4080B584B000AF786039607B68022B02D9002000F0B3F97B68181CFFF7D9FF031C002B18D10D4B1B687A68D200FC
:4025C0000321081C9040021CD2431340FB603A6803231A407B68DB00111C99400B1CFA681343FB60024BFA681A60BD4604B080BD0C020B4080B584B000AF786039607B68E0
:40260000002B02D07B68012B01D1012300E00023002B02D1002000F07BF97B68181CFFF7A1FF031C002B18D10D4B1B687A68D20002320121081C9040021CD2431340FB6079
:402640007B68DB0002333A68111C99400B1CFA681343FB60024BFA681A60BD4604B080BD0C020B4080B582B000AF7860154B154A11687A680A431A607A680123134006D011
:40268000C0460020FFF76EFF031C002BF9D07A6880235B00134006D0C0460120FFF762FF031C002BF9D07A6880235B02134006D0C0460220FFF756FF031C002BF9D0BD4650
:4026C00002B080BD10020B4080B584B000AF786039607B68002B02D07B68012B01D1012300E00023002B02D1002000F011F9174B1B689B0F9B0701D1C92300E05D23181C82
:4027000000F010F9124B1B68FB607B681B01114A111C99400B1CDA43FB681340FB600C4B7A68120139689140FA680A431A60074B1B689B0F9B0701D1432300E01F23181C1A
:4027400000F0F0F8BD4604B080BDC0460C020B4008020B40FFFF000090B585B000AF78603C1C0B34FFF7DDFC031C2370FFF7C4FE031C002B04D00123FB60FFF7CDFE01E0CB
:402780000023FB607A680C4B13407B600B4B0B4A11680B4A11407A680A431A60FB68012B01D1FFF78FFE3B1C0B331B78181CFFF7BCFCBD4605B090BD0404040010020B4065
:4027C000FBFBFBFF80B584B000AF021C3960FB1D1A7080239B05FB60FB1D1B781F2B02D9002000F095F8FB1D1B7810339B00FA68D3181B68BB60FB1D1B7810339B00FA680E
:40280000D3183A681A60BB68181CBD4604B080BD90B587B000AF0A1CFB1D011C1970BB1D1A70BB1D1B78032B02D9002000F070F8FB1D1B781F2B02D9002000F069F8FB1D90
:402840001A7803231340DB0006337B613C1C1334FFF767FC031C2370FB1D1B789B08DBB29B0014495B181B68FB607B690322111C99400B1CDA43FB681340FB60BB1D1A78C1
:402880007B69111C99400B1CFA681343FB60FB1D1B789B08DBB29B00064A9B18FA681A603B1C13331B78181CFFF73FFCBD4607B090BDC04600E400E080B582B000AF021C05
:4028C000FB1D1A70064BFA1D11781F220A400121081C9040021C1A60BD4602B080BDC04600E100E080B582B000AF021CFB1D1A70064BFA1D11781F220A400121081C9040EB
:40290000021C1A60BD4602B080BDC04680E100E080B582B000AF021CFB1D1A7001BEBD4602B080BD80B582B000AF021CBB1D1A80BB1D1B88044A12785343181CFFF7E8FBA3
:40294000BD4602B080BDC046A001002090B583B000AFFC1DFFF7E5FB031C2370074B074A126804218A431A6030BFFB1D1B78181CFFF7DBFBBD4603B090BDC04610ED00E0CD
:4029800090B583B000AFFC1DFFF7CBFB031C2370114B114A1268520052081A600F4B104A128892B21A600F4B0E4A126804210A431A600D4B1B683B600220FFF7FBFB30BF7B
:4029C000094B3A681A60FB1D1B78181CFFF7ADFBBD4603B090BDC04600000B400C000B4052F1FF0F10ED00E000010B4090B583B000AFFC1DFFF795FB031C2370114B114A96
:402A00001268802109060A431A600F4B0F4A128892B21A600E4B0E4A126804210A431A600C4B0C4A1268FF218A43F1210A431A6030BFFB1D1B78181CFFF777FBBD4603B0AA
:402A400090BDC04600000B400C000B4050F1FF0F10ED00E02C000B4080B582B000AF094B1B68DAB2FB1D7F218A431A70054BFA1D12781A60FB1D1B78DB09DBB2181CBD4678
:402A800002B080BD1002044080B500AF00F050F8054B181C00F00EF8032000F017F800F03DF8BD4680BDC046AD2A000080B500AFBD4680BD80B582B000AF7860024B7A6896
:402AC0009A64BD4602B080BD0000002090B585B000AF021CFB1D1A701623FB603C1C0B34FFF71FFB031C23700A4B0A4A11680A4A1140FA1D1078FA68041C9440221C0A43A9
:402B00001A603B1C0B331B78181CFFF70EFBBD4605B090BD00E400E0FFFF3FFF80B500AF024B04221A60BD4680BDC04600E100E080B500AF024B04221A60BD4680BDC046CC
:402B400080E100E0F7B59C180023071C01910092237008268025207828432070B96800984A6A9047019B984202D22078A8432070013E6D08002EEED12178CFB2F82F01D9F4
:402B8000082671422170F7BD70B5051C0E1C00242B789C4208D2A868221C0368311C281CFFF7D0FF0134F3E770BD000038B5051C00242B789C4218D2AA681168085DC3085D
:402BC0000F2B00D90F230949D268C85C1055AA680748042B03D9536B211C012202E0536B211C002298470134E3E738BD282D010034250020F0B5051C89B000266B789E4268
:402C000065D2AC68206A815D0291002901D101220292E7692978BB5D00930098884201D30136EBE7A268009F0F21D35DA4690B402849B000049300227B0022500390581896
:402C4000254C0590254819191B18069107933C1C0192009F029AD1198C42E1D2AF68AB88FA68E888115D584300F0CEF93968095D00F07CF9049B1A49584340005A2802D938
:402C800049084008FAE7BF690A0C039913047B50144F154B8208385514491A55144AC0080F27085517550199012305985A424252069A0798002353524352A9688B681A19B5
:402CC0001078013407401770019A0232C0E709B0F0BDC0465C25002074250020602500200000FFFF64250020782500205825002054250020F0B53E4F4B00DC5B9A5A89B0ED
:402D0000DA53161B3B4F02967D5C9C466C003A4D059467467C5B394E394F735C03946646F55B8768374C0495BD68665C6C5C029D0696059EEF0F0794F4190F273C40EE17E2
:402D40000194AC1974409C4203D2012B05D0013B00E00133FF263F2B00D89E00274D019F6B540F2F29D0002F24D0B44225D8079C039D26090596141EAC4200D92C1C049F2B
:402D8000BA4200D23A1C059E09250027B5427F41F5190A2D13D1171B0397039E5F1CB34205D9069FBE089E42BF417E429F1B164B5F5404E0141C019D01E0141C00256E46E7
:402DC00037790C4B66465F540B4F0F23BC530C4C2D01A253826897687E183478234033708068826851180F783D430D7009B0F0BD60250020542500205C2500205825002085
:402E000074250020642500207825002080B582B000AF78600A1CBB1C1A80BB1C1A887B681A60BD4602B080BD80B582B000AF78600A1CBB1C1A80BB1C1A887B681A60BD46C8
:402E400002B080BD80B582B000AF021CBB1D1A80BB1D1B88181CFFF765FDBD4602B080BD80B500AF00F068F8BD4680BD80B500AF00F06CF8BD4680BD80B500AF00F066F8A6
:402E8000044B181C00F024F8022000F02DF8BD4680BDC046612F000080B500AF024B181C00F004F8BD4680BD612F000080B582B000AF786000F04AF87B68181C00F008F82E
:402EC000022000F011F800F037F8BD4602B080BD80B582B000AF7860024B7A681A67BD4602B080BD0000002090B585B000AF021CFB1D1A700623FB603C1C0B34FFF711F9F2
:402F0000031C23700B4B0B4A1268C021101C8843011CFA1D1078FA68041C9440221C0A431A603B1C0B331B78181CFFF7FEF8BD4605B090BD0CE400E080B500AF024B8022DB
:402F400052011A60BD4680BD00E100E080B500AF024B802252011A60BD4680BD80E100E080B500AF0FF08CFBBD4680BD002934D00123002210B488422CD301242407A14285
:402F800004D2814202D209011B01F8E7E400A14204D2814202D249005B00F8E7884201D3401A1A434C08A04202D3001B5C0822438C08A04202D3001B9C082243CC08A0427F
:402FC00002D3001BDC082243002803D01B0901D00909E3E7101C10BC7047002801D00020C04307B4024802A14018029003BDC046D90000000029F0D003B5FFF7B9FF0EBCB7
:403000004243891A1847C046002941D010B4041C4C40A44601230022002900D54942002800D5404288422CD301242407A14204D2814202D209011B01F8E7E400A14204D216
:40304000814202D249005B00F8E7884201D3401A1A434C08A04202D3001B5C0822438C08A04202D3001B9C082243CC08A04202D3001BDC082243002803D01B0901D0090992
:40308000E3E7101C6446002C00D5404210BC7047002806D003DB0020C043400801E08020000607B4024802A14018029003BDC046190000000029EBD003B5FFF7A7FF0EBC29
:4030C0004243891A1847C0467047C04670B50E4B0E4D0024ED1AAD101E1CAC4204D0A300F35898470134F8E70FF05AFE084B094D0024ED1AAD101E1CAC4204D0A300F35816
:4031000098470134F8E770BDAC2D0100AC2D0100AC2D0100B42D010030B50023934208D0C55C0133CC18013C2478A542F6D0281B00E0002030BD10B50023934203D0CC5CA3
:40314000C4540133F9E710BD031C8218934202D019700133FAE7704710B501F093FA10BD10B501F0A5FA10BD10B500F0EFF810BD10B50749044609780220002907D120469D
:4031800001F0C4FA002802D1204609F057F810BDBA02002010B506F0E1FB01F089FA01F0ADFA01F0CAFA00F0DBF800F0E5F802490020087010BD0000A8010020F7B51F4E94
:4031C0000024307815460F46002804D00824B76075802046FEBD002F00D1012401F068FA0098002805D0172D03D301204002854201D90124EBE7002CE9D12946384600F019
:4032000023F80400E3D1706800F01CF80400DED1706800F015F80400D9D101F051FA0400D5D1009806F084FB0400D0D106F09AFB0400CCD101203070C9E70000A8010020AB
:403240000020704700207047F8B50D4607460026FFF722FEFFF70AFE00F056FA040065D100F0E2FB040061D13449084600F0EAFD0404240C5AD1A80705D0A807800F0421B0
:40328000081A401985B2172D02D968002E3886B22B48301881B2384601F0D8F8040045D1284F03460246002825D127495E008E5B294610318E4207D99000C0194180022166
:4032C000521C4170D2B215E08E420BD10020787690001D49C0194680891FC95C891C4170012012E0052A06D1164806461436418302207071012014495E008E5B9100C919B8
:403300004E80114EB61FF65C4E705B1C521CDBB2D2B2062BC7D30B4800F084F8002C05D100F09CF807490120891E087000F0FEF9002C01D0FF20F8BD0020F8BD9133000094
:40334000940C0000B6010020062E010010B503480078012801D100F009FF10BDB401002010B500F0C3FB002803D100F0E3F9002800D0FF2010BD000010B500F0CDFB00F0F8
:4033800093FD02490020087010BD0000B40100207047000010B5011F0878034A8000105800F0F4FF10BD0000CC10002010B5044604498000085800F057FF002801D004700C
:4033C000001D10BDCC10002038B5044692B2C9B2684600F06FFF024AA1000098505038BDCC10002070B50B49064600204C6805466178002908D06188B14202D32078FFF7D2
:40340000D5FF002804D1241D6D1CEDB2082DEFD370BD0000D801002010B5002801D0FFF7B9FF10BD70B50B4E0446002570606178002905D062882078121D0023FFF7C4FFDB
:403440006D1C241DEDB2082DF1D3024800F0F0FFB06070BDD8010020002070471CB5002469460C70142001902346054A05480CF0CBFC04480068401C00D1FF2420461CBDC4
:40348000D9340000E40100203EB5124A0146FF2000230124126800290DD0012914D0042908D104206946009308814B8110460CF0A6FC80B23EBD6846009304814381694654
:4034C00010460CF097FCF4E768460093048143816946EBE7E401002070B54589046841680089030000F026F806240408081D2124002005F0F5F91BE0022908D0C8B22A46CF
:4035000021460AF00BFF2046FFF786FF10E002202A4621460AF002FF2946204600F018F806E000200CF05CF902E020460CF0F2FC002070BD30B47446641E2578641CAB4286
:4035400000D21D46635D5B00E31830BC18470000014B0022DB681847E801002010B542890168094B00899C68022803D0032804D0FF2010BD0023012003E0121D002392B21D
:403580000220A047002010BDE801002070477047024800214160018041807047E801002070B50C46002186B016460391012802D0022859D116E003A9012006F0F4F80128B5
:4035C0001BD1039D324621462846FFF7B4FD0095287801900220694608814E816846FFF7BDFF41E0214D002B686809D0049004A9022006F0D8F801281DD0022006B070BD55
:40360000002812D0298840182146FFF794FD28880024801980B228806988091D884206D12C801348FFF79AFF03E00320E6E788421AD96C6018E004986860E278A3781102B4
:4036400019430B4A698000231060E3565360032313815181A1788170E178C1706178417021780170042028800020C7E7E8010020EC100020F7B5022784B0164605460228E4
:4036800002D0042D29D106E005980090019568460781428113E01046FFF7A4FE040016D032460599FFF747FD68460195009407810B4B4681DB68002231460598984709482A
:4036C000694600680CF09BFB012007B0F0BD044B0022DB683146059898470020F5E70000E8010020E4010020014AD16090607047E8010020034801688068081A0A2148434B
:4037000000097047F810002010B5FFF7B5FB542204490548FFF70FFD03490120C870002010BD0000162E01004813002010B5FFF797FB10BD0020704770B5134C2368002BA7
:4037400008D0207B1149C20705D04008400020738868A08070BD88680B4AA18880B29268814203D90A4D691A091802E0814202D2411A5118A160A080A0689842EAD300F065
:4037800015F80CF059FB70BDF8100020C0102E40FFFF000010B508461946FFF7A5FF10BD704710B5FFF766FF10BD000003480021016041608160C16070470000F81000204F
:4037C00010B502000DD0FFF7F1FF074C0321207B0843207310010A21FFF70CFC2060002010BDFF2010BD0000F810002000B504480A21806848430209FFF7D8FF104600BD0A
:40380000F81000200248007B8007C00F70470000F810002070B558490868002802DA574B01221A70022290430860554800695249C00B4031096A08426CD0012000F0BEFADF
:403840004F4850497C30FFF7EFFA4B480E216C30FFF7EAFA4A4820218430FFF7E5FA484814219C30FFF7E0FA4548FF21C131A430FFF7DAFA4248FF212F31B030FFF7D4FAAD
:403880003F484149BC30FFF7CFFA3D483F49AC30FFF7CAFA3D493A48491CB430FFF7C4FA37483B49B830FFF7BFFA35483949CC30FFF7BAFA324838490830FFF7B5FA304815
:4038C0003649A830FFF7B0FA2D4835498830FFF7ABFA2B4833498C30FFF7A6FA28481921C9029030FFF7A0FA2F4D287E697E0C020443A87FE97F2D4A090201432C4891428B
:4039000001D1072C08D035229201914208D1042C05D005E0FF2070BD0146042400E0014617486C30FFF780FA154821467430FFF77BFAA87EE97E0902014301204003814207
:4039400001D0002900D11B490D487830FFF76CFA2A7F687F010218481143814204D01748814201D0052901D113490A3904488030FFF75AFA002070BD00F02E40F801002045
:4039800000002E4055650000320300002F3F00003102000010520000EC160000FA12000031D000003AE30000C0F0FF0F580B0000580D0000022000000F0F000005050000AB
:4039C00070B50646581C80B245086D00002408E0304600F07FF81055000A1119A41C4870A4B2AC42F4D3D80705D0D0182038D15CC47FD454C17770BD30B50A4C002100198B
:403A00005B1E07E0541864782502545C2C430480891C89B29942F5DB994201D1515C018030BD000000102E4010B5FF2000F0C6F90F49FF2088700E481021801D418001213A
:403A4000417001700A490020091D4870FFF7E2FE04000AD100F0DAF807210648FFF7D6F9044807211830FFF7D1F9204610BD0000F8010020CC112E4030B504465B1C18044C
:403A8000450C002308E0204600F024F8241D59005B1CA4B250529BB2AB42F4D330BD000070B500210A4D5B1E0AE0541864782602545C344346193480001D891C80B289B268
:403AC0009942F2DB994202D1515C4019018070BD00102E40014940180088704700102E40014A80180180704700102E4010B508490020487000F08AF807210648FFF786F9FB
:403B0000044807211830FFF781F9002010BD0000FC010020CC112E4010B506480078012803D102210448FFF77FF902490020091F087010BDFC01002070F02E4010B50B46C6
:403B4000062812D006DC01280CD0032801D1FFF7CDFF10BD0A28FCD00B28FAD105480078107010BDFFF760FF10BD1146184600F057F910BDFE010020F8B5214DAC6A012758
:403B8000A007204E002818DA3078062810D1286A384328621C480069F903084381B21A481030FFF741F9301F4770042000F006F9134802212830FFF729F9E00711D006207A
:403BC00000F0FCF80F49FF20091F88707078002802D1686B38436863094801212830FFF715F9E0050BD53078042802D1052000F0E5F80348FF2101312830FFF707F9F8BD81
:403C000040F02E40FC01002000002E4010B503212348FFF709F90120FFF714F920483038406A204C80076178800F890001431C480C38FFF7F9F86078002808D0401E022161
:403C400081401820FFF736FAC000083800E0B82081B21548FFF7E8F81348032109021438FFF7E2F810481149B830FFF7DDF8452189010F48FFF7D8F80D480321001FFFF761
:403C8000D3F80C490C48FFF7CFF80B480B496038FFF7CAF8084801218838FFF7C5F810BD70F02E40FE010020D8102E4090890000041E2E40FF0F000058122E4020900000A8
:403CC000044800684007400F022801D0002070470120704700010B4000B5FFF7F1FF002805D009480168C908C900016000BD0748016A490849000162054801690122D20314
:403D00009143016100BD000000010B4040F02E4000002E400849087806280BD148780749002803D1486B400840004863C86A01221043C86270470000FC01002040F02E4027
:403D40000148007870470000FC01002002488078022800D001207047F801002000B50300FFF7E8FB080D050D0B070507090D012000BD032000BD042000BD022000BDFF20F8
:403D800000BD0000074A9168D26889B2064B92B2994204D105498A4201D1012100E000210170704780002E4033D000003FE300000149487070470000FC01002010B5044613
:403DC000FFF754F8072C01D9FF2C01D102480470FFF746F810BD0000FC0100200149887070470000F801002010B50A4A141D012808D009491046FFF717F808492046FFF7E4
:403E000013F810BD04491046891CFFF70DF80349491DF3E788002E4031D000003AE300000078074AFF2803D04C2804D9553803E01078087070474F38087010707047000056
:403E4000FB01002010B50F4A002313600E4A13600E4B18600E4801600E49012008600E490860000290600E490C4808600D4914300860FF381538506000F0BEF800F0CCF9EA
:403E8000002010BD1C020020040200203002002034020020200200201002002008120020140200202802002000207047014610B50020002910D0094B1A689C685118A142A9
:403EC00009D25868196080188A0704D08A07920F891A091D196010BD002010BD04020020F8B50024164E671E321F3D463168136806E01422624310328A58521C1BD0641CFD
:403F00009C42F6D36A1C14D02C461422544322460C3288500C214843FFF7C8FF3168002808510AD031680020103408517068401C70602846F8BD2546E4E73846F8BD000064
:403F400014020020F3B50026F64381B000281BDB1E490968884217D80299002914D01B4F142204463F1D54432546396810354859401C09D0FEF77AFF38682F1F4159C35966
:403F8000994203DBFEF76CFF3046FEBD214608310091465801590C20704308180C220299FFF7C9F80948761C001D0068C159B14200D100260549009A091D865008684159B5
:403FC000491C4151FEF74CFF0020FEBD10020020002803DB07490968884202D90020C043704704491422091D09685043103008587047000010020020F0B500200D4A451E82
:404000000346171F50600FE014260146714314680E1DA3510C461668083433511668083435511468401C635039688842ECD30020F0BD000014020020F3B50026F64381B0D2
:40404000002841DB2349096888423DD8029900293AD0204F142204463F1D54432546396810354859401C2FD0FEF700FF3868415900292BD0211D009146580C21005971434A
:404080000F46C1190C220298FFF755F811480021001D0068761C00590C34C0190160416081600C48001D00680159B14200D100260849009A091D865008684159491E4151D9
:4040C000FEF7CEFE0020FEBD3046FEBDFEF7C8FEFAE7000010020020FEB504460D4600201E49089E0860471E009001900290002C11D0486885420ED2002A0CD0002E0AD0B6
:40410000642E08D808460C3001681C2068430C18207A002801D03846FEBD0120226020721846FFF7DDFE6060401C13D06681A6810A4827610C3067610179A94200D2057147
:404140000021684601810A462846029B00F040F82846FEBD00202072DDE700001C02002038B50124009400F039F838BDFEB50027164EFF433D4600240EE01C203168604345
:404180000818017A002906D04068FFF721FF002801D0254603E0641C3079A042EDDA681C12D01C2130684D434419FEF75FFE69466068FFF741FF0546FEF752FE002DD9D100
:4041C000216868468847D5E7FEBD00002802002038B50024009400F001F838BD1FB500220C49541E0A60002811DB496888420ED808491C220C31096850430818406801A997
:40420000FFF7A0FE401C02D0002004B010BD2046FBE700001C020020F0B50021114A4D1E174611710C3F0B46BD6016E008461C2460431668041D355114680646235014686E
:404240000836A3551468361DA353044616680A34335318301468491C255078688142E5D30020F0BD2802002038B500210091002811DB0F49097888420DDA0D4D04010C35CA
:4042800029680859002807D0201D0818694600F05FF9002801D0002038BDFEF7E7FD28680F34015D491E0155FEF7DAFD009838BD38020020F7B582B00025ED430298002440
:4042C0000E460560002A49D0002E47D02D48D21C02402D48174601780C30006805E022018258002A0FD0641CE4B28C42F7D3691C3ED02C01211D40180191314600F016F9F2
:4043000000282BD101E02546F1E71F480C30016820460C300F521C480C30016820460E300E5419480C30016820460F300E543846704300F0ADF814490C31096800280851B8
:404340000CD00024009011E00F480C30016801980818009900F017F9002802D0012005B0F0BD0098C019641CE4B20090B442EBD30298054905600C310879401C0871002026
:40438000EDE70000FCFF000038020020F8B50D4600216A468C461180002839DB23490978884235DA214B04010C3319680A59002A2ED020460C300B5A801C0E5C18467043C4
:4043C0008018954224D3854222D2002006E007465F43BF18AF4206D0401CC0B2B042F6D36046002814D0114E271DC8190C366A46294600F0F2F800280AD1684600880128AD
:4044000008D030682946C01900F0BDF8002803D00120F8BD0020F8BDFEF728FD30680F34015D491C0155FEF71BFDF3E73802002003460020002B06D0034A516890685288E8
:404440004018511A198070473802002070B5002400F0DCF80D4E002132460C3271600EE0200113680546195013680C355953AD1C13680F3059551368641C1954E4B2307842
:404480008442EDD31171002070BD000038020020014610B5002000290CD0C91C064B8A08596892005C888A18A24202D898685A60401810BD002010BD38020020F8B50028C2
:4044C00027DB19490978884223DA174C05010C342168485900281CD028460C30085A009028460E300E5C401C0E5420682F1DC01900F064F800280CD12068002445590EE083
:40450000094829460C300068C01900F03CF8002801D00120F8BD00982D18641CE4B2B442EED30020F8BD00003802002030B50D4604000BD0A800FFF7ABFF6060002805D056
:4045400000202570C0436080002030BD012030BD70B50D46040005D0002D03D00220205E002801DA012070BDFEF780FC0221615E60688900405828606088401E6080FEF767
:404580006FFC002070BD70B50D46040007D0002D05D002212078615E401E814201DB012070BDFEF763FC6088401C00B26080616880000D50FEF754FC002070BD10B50400FE
:4045C00009D0227800216068FEF7BEFD0020C0436080002010BD012010BDF0B500231D46002802D00224045F0AE00120F0BD46689F00F6598E4201D1012503E05B1CDBB220
:404600009C42F4DA15700020F0BD0000054B11221A70054A1180064A044911600549086070470000380200203A0200203812002044020020400200200148007870470000B4
:404640004C0200207CB505460024FEF789FDA8796946087000A8062229460130FEF76BFD0021684604F09AFB0C2804D0072804D01F2804D004E0022402E0042400E02724DF
:4046800020467CBD10B502280BD0032802D0042809D102E000F0DCF805E000F0ABF9FF2801D100F0BBF9FFF74BFBFFF757FB10BD10B500F0E3F9FFF743FBFFF74FFB10BDAF
:4046C00010B503240CF0C0F8002810D10CF064F800280CD105F0B6F8002808D100F0A0FB002804D104F0B4FD002800D10024024900200870204610BD4C020020FF20024AD7
:4047000000211170704700004C02002070B50025044600280ED0A07901280BD8FEF720FDA0790028204602D002F0C8FF03E002F07DFF00E00125284670BD704710B5FFF74B
:40474000FFFA012801D1FFF701FB10BD38B504460120002C20D0617801291DD800290BD0FF25E535FEF7FCFC2846FFF7B3F9C0B22070072803D00EE0FF25CD35F2E70020CA
:40478000694608706846FFF7FDFA69460878012801D108202070002038BD70B504460120002C1FD06178012902D92278092A19D8002906D0FF25E53520780726092803D0F3
:4047C00003E0FF25CD35F7E72670FEF7C9FC2078082808D00020FFF707FB21782846FFF77FF9002070BD0120FFF7FEFA2670F4E770B50D46040001D0002000E005480028C6
:4048000002D0012102F004F92946204602F066FC70BD0000BC13002038B5054600200446009022466946284600F092FF0098002801D00BF0EBFFA878214602F00EFAA87801
:40484000214602F0FDF9641CE4B2052CE9D338BDF8B5624CFFF774FA012846D160480078002842D002F0BEFB0028FAD003F0A0FF0028F6D05B4E7078C00703D000F03DFC27
:404880000128EED0B07E0028E7D170780025002878D0000707D5AC20FFF71CF9070B00F057F9384321D14F484178684603F05EFE4D4F06462079B9784018C1B2B14271D807
:4048C00002F090FB002810D0464C203402F0B7F96846008802F0E3F902F08CFA43490988884203D10120FFF769FA74E04049012008703C48807B00282BD04034608A00285C
:4049000027D0E07E002824D1A1200001FFF7E2F8208A4000B04218D97878002815D1A12424012046FFF7D6F80221884301462046FFF7D6F8FF24F1342046FFF7CBF80321AA
:40494000090201432046FFF7CBF83878002800D03D7002F0E7F90120FFF72AFA244C08E0FDF7F4FFFFF7ECF906282CD02078002829D0FFF7E5F9062825D020780128EFD0F3
:4049800021E0FFE702F02EFB002824D0142002F086F9174C0120207002F0C4F90020FFF707FA09E015E0FDF7D1FFFFF7C9F9062809D02078002806D0FFF7C2F9062802D0B2
:4049C00020780128EFD0207801288BD1FFF784F925700020F8BDFF20F8BD000088130020F80100209C13002052020020640200204D02002010B50848FF244078002809D16B
:404A000002F0F0FA012805D1FFF786F80720FFF7D5F90024204610BD9C13002038B5FFF78FF9012801D0002038BD02F0DBFA00280AD0114C6078C00703D000F05EFB012892
:404A400002D0A07E002801D0FF2038BD617800290FD0684603F08AFD022806D96846008802F01DF9012002F063F90320FFF7A6F9D9E70020F7E700009C13002038B5FFF752
:404A80005FF9224C2178012911D0062813D0032836D007280AD100206946087002460120FFF74CF8FFF74CF90128FBD138BD20780128FCD038BD02F059F9FFF741F9012812
:404AC000FBD120780128FCD0A12424012046FFF701F801210E4A83079B0F1170022BE9D15288002AE6D001432046FEF7F9FF2046FEF7F0FF410849002046FEF7F1FF38BD9B
:404B000002F038F90120FFF759F938BDF901002052020020F8B50646002402F0E1FE0546304602F0F5FE00210346012632468A40174610462F401840002F03D0002801D189
:404B4000224394B2491CC9B20529EFD32046F8BD70B500252C460A4E03E0002C01D0002000E030460079002803D02046FFF7D2FF0543641C2406240EEFD0284670BD000016
:404B8000BC1300201CB50020694648706846FFF7DDFD01AA69460A20FEF7D0FF6946042008561CBD10B50C4601F076F9002809D00179002906D0C1788078224602F03CFB2B
:404BC000002010BD022010BD0148007870470000881300204030C07E002800D00120704700B500F001F800BD88214843064940186030417F491CC9B24177052901D30021E7
:404C00004177C8B2704700009C13002013B501F043F904000BD001F0CEFC002807D0214601AA0A310620FEF789FF00201CBD02201CBD000010B50C4601F02EF900280AD019
:404C400001F0B9FC002806D0224604490A20FEF775FF002010BD022010BD000071130020F3B581B0074601460026029802F030FE0446002F01D0002500E0154D002D21D0AC
:404C8000284601F03FF9032C04D13946029802F049FE06463846029901F0D2FF032C06D0002C10D00121384601F04CFA03E03146384602F0EBFF284601F090FE02212846C6
:404CC00001F0A6FEFEBD3846029901F0B9FFFEBDBC13002070B50446002503F0DDFB002801D00C2070BD2078611C02F09FFBFF2802D01F25284670BD02F0ECFBFF2804D0FA
:404D00002178621C01F00EFFF4E70725F2E710B503F0C2FB002801D00C2010BD02F05EFB002010BD70B50D46044610210BF0AEFC1021601806460BF0A9FC334610221946A8
:404D4000204603F0D5FB102130460BF09FFC02202870204604F0D4F970BD70B504464078217802028006850FE0781143A67809050002090D0643084601F08EF8002812D0D9
:404D8000022D10D0032D0ED0002E08D00179092909D0002907D0214600F0A1F870BD0089002104F0E2F820460BF030FD70BD0020704770B50446002503F06EFB002801D03B
:404DC0000C2070BD2078611C02F030FBFF2802D002F072FA00E01F25284670BD10B504F037FA00F0F6F8002010BD10B5044600786178E2780843A1781143084321790843BB
:404E00006179084305D003F039FB002803D00C2010BD122010BD204602F050FC002010BD10B5044803F054FC02F050FA00F004F8002010BD58130020F8B5114D00266E70CA
:404E40006E736E716E76AE76EE766E75AE70EE70AE712F46EE730120B03778723F2078719B20B87100F00AFA0024204601F06AFB641C2406240EF8D03E72FE71AE73F8BD27
:404E80009C13002070B505460E46084602F028FD0446304602F03CFD0121A9400A46224001400A4301D0012070BD002070BD10B50446084602F02CFD0121A140014201D0C9
:404EC000012010BD002010BD10B5FEF739FF032804D101F04FFF0120FEF770FF10BD70B5044600790D4609281CD000281AD020464030817E491C8176204601F06FFDA078DE
:404F0000FFF76EFE064602462946204600F00CF8002806D1A0783146FFF76AFC28460BF075FC70BD0846FAE7F7B5054648780C468006870FC8788978000282B00143684606
:404F40008180284601F042FB060007D021462846049A00F091FB304605B0F0BD384600F039FC0746034601AA2946204600F0CAFA68468088231DC0B20090A878FF220499AD
:404F800002F066F8684680883B46C2B2A878049902F010FCDFE770B5002500242846FFF7B9FD060010D03046E040C007C00F07D02146284601F037FE21462846FFF750FEF0
:404FC000641CE4B2052CEED36D1C2D062D0EE4D070BD10B502F07AF9FFF72EFF0BF07EFC002010BDF8B5002400F081F80123012800D10124104F00203E46203604250822F9
:4050000003E0002801D0002100E031460979002907D001290BD002290BD0114681402143CCB2401C0006000EEBD07C70F8BD1C43F7E72C43F5E700009C13002010B5FFF7B7
:40504000D1FF10BD10B50B4681791943817103D08078114602F072FB10BD10B582798A43827102D1807802F081FB10BD70B5FF25D53502242846FEF72DFD0C4A91780029D3
:4050800001D0022906D1137852789A18282A01D9032402E0032900D101244105490DE00201432846FEF71CFD70BD00004E02002010B500F022F8002807D0012805D00328ED
:4050C00001D0042801D0002010BD012010BD014610B50020C90701D000F009F810BD014610B50020C90701D000F001F810BD10B52020FEF7EFFC000A10BD10B51820FEF74B
:40510000E9FC410501D5042010BD4007800F10BD38B5044640060CD5684601F03BFE0220FFF78CFF072002F0EDF96846007801F071F9200613D5FFF7E0FF01280FD16846E7
:4051400001F028FE6846007800F09AFA072002F0D9F9012001F0AAFC0220FFF76FFF38BD10B5034A0178117002F0DBF9002010BD4E02002010B50446FFF7B9FF002801D06B
:405180000C2010BDA27B01211848002A827801D00A4301E05208520082706279012A0FD0C17849084900C170207901280CD06188208802F0D9FF2080207904280BD00DE087
:4051C000C2780A43C270EFE7E01D02F05FFA0848808C208002E0E01D02F058FA054920798870204602F0ACF9002010BD9C130020481300204E02002038B50478FFF777FF61
:40520000844201D10C2038BD002C18D0072069460870FFF74DFF012807D10121684600F08DF8012801D0092038BD6846007802F069F9FFF71BFF02F0B3F9012010E0FFF784
:4052400037FF012806D1684601F0A4FD6846007800F04AFA072002F055F902F095F90220FFF7ECFE002038BD10B5034A0178517002F03CFA002010BD4E02002038B56846F4
:405280000BF05AFA002801D01F2038BD01210098C90201804180002505714571857107214173857302F04CF9009C202200212046FDF74AFF25702A460021601CFDF744FFDE
:4052C000204602F02EF9204602F010FA00980BF09DFA042200210248FDF736FF002038BD4E0200200346084800B5834209D8184600F0D2FD002804D00089984201D1012001
:4053000000BD002000BD0000FF0E0000074A9179491C8906890E917138220A4092014907090E114308430249084070479C130020FF0E0000C006C00E70470000F8B5074636
:405340000E4600240D4803E0002C01D0002500E005462979002905D0641C2406240EF3D00020F8BD204601F0EDF82E712046FFF7CDFF28813C700120F8BD0000BC130020FF
:4053800010B503F0E9F80222002100F003F801F045FF10BD10B5094B40074907000F090F185A595A40185043C0086421FDF722FE002800D1012080B210BD00006A2E010028
:4053C000F7B53D20405C88B016460C46002829D030786946087200252046FFF7FBFB012800D00125204603A938300191009023460327A17E34332A46206A03F083F902A8D2
:40540000089900900B46019120463A4603A9243003F050F802466846007A3070204601F07DF810460BB0F0BDFFB587B00C4605461078694608723D20005D1746002826D02F
:4054400000262046FFF7C6FB012800D00126204603A93830019100902346A17E34333246206A03F04FF902A80090291D019120462B1D03A924300A9A03F01CF802006846E6
:40548000007A388002D1204601F048F810460BB0F0BDF7B53C20405C88B015460C4600280CD0287869460872002806D000262046FFF790FB012803D003E01F200BB0F0BDAB
:4054C0000126204603A938300191009023460327E17E34333246E06903F014F902A8089900900B46019120463A4603A9243003F013F802466846007A2870204601F018F8BE
:405500001046DBE7FFB505463C20405C87B016460C46002810D0084601F058F801280BD0308869460883002809D000272046FFF751FB012805D005E000200BB0F0BD02208D
:40554000FBE70127204602A93830019100902346E17E34333A46E06903F0D4F806A80090291D019120462B1D02A924300A9A02F0D3FF02466846008B30806846008BA87022
:40558000000AE870204600F0D3FF1046D5E770B50D460446FFF71EFB01280AD0E87AA97A00020143A07801F0F7FC012808D0002070BD00222421204602F020FD242070BD19
:4055C00028214C200155204600F09AFB282070BD002801D0002000E003484030C07F012800D0002070470000BC1300200146002049070ED50021084B03E0002901D0002281
:4056000000E01A461279022A04D0491C0906090EF3D0704701207047BC1300200146002049070ED50021084B03E0002901D0002200E01A461279022A04D0491C0906090E70
:40564000F3D0704701207047BC13002010B5044680346068002803D00BF0ECF80020606010BD4030417070474030817070474030017070470171704792001018C16670478E
:4056800070B53C2501F02CF9040004D020460021433001F021FC2946204600F0C0FB002C02D0A07801F0AEF870BD000010B5002801D0002000E00348002802D0008903F095
:4056C0009AFC10BDBC13002010B5002801D0002000E00448002804D00179072901D100F041F810BDBC13002010B501F0F9F8002802D0807801F086F810BD00207047000045
:4057000070B50546008A00281ED010491122897A1140C90618D5294640314A8A098A521C4A4392B2D10800D10121540801E0621A94B2A042FBD9FEF77FFF012804D1298A92
:40574000A878224601F018FD70BD00004813002000230B60052A04D292001018C26E0A60C366704738B5044600200090A079002814D14020015D052901D00E290ED168469E
:405780000AF0EAFF002809D12046009902F01EFC03481021C28A2046FFF754FC38BD00004813002010B50B4604460146184602F0EDF8002802D020460BF032F810BD13B51F
:4057C000044601AA11460620FEF7B8F96846818861811CBD002800D10220704770470000F8B504462346401D543300909A1EA078911E01F0DEFA25464035A88A298A800035
:40580000FDF7F8FB401E81B2688A884203D96982A07802F01EF820460021433001F05CFB8020FEF757F9E88102F096FEE989891C8AB26179FFF7AEFD01F0F0FC02F08CFE10
:405840002A8A6179FFF7A6FD074601F0D9FC688A00280BD0FF26F1363046FEF73BF90321090201433046FEF73BF902E0002001F0DEFFFF206130FEF72DF96E8A002E0BD060
:4058800070431049FDF716FC0004000C01D0401C80B20D49488002E00B4800214180288A704381B2A07801F02FFF2837B9B2204602F05EFCE98AA07801F07EFEA07801F0E6
:4058C000E2F9F8BD71020000520200207FB504468034616805460E46183108226846FDF72AFC31462031082202A8FDF724FC102168460AF0CBFE6068102108300AF0C6FE1B
:4059000060682B46083024331022694602F0F0FD7FBD10B504460821FFF79FFB10212046FFF79BFB207905281FD006281DD008281AD12189002003F0D7FA07202071204621
:40594000FFF748F9014620464030012913D00E21017000210176204600F060FF2046FFF775FE2046FFF7CCFE10BD20890122002103F09EFAE1E70521EAE70000FFB581B0FB
:405980001F4604460821FFF768FB10212046FFF764FB2079082803D0092804D0042203E00422012501E009220025204600F0FAFD264600204036307022712046FFF746FE81
:4059C0000398002D02D0012808D00BE001280AD120890022029903F06BFA04E02189029803F082FA012700203076012F04D0204600F014FF05B0F0BD02983073204602F076
:405A000029FB054605480121C28A2046FFF71AFB002DEFD109202071ECE700004813002070B50C460546FFF7D5F8012809D108212846FFF712FB0023012221462846FFF7A3
:405A40009DFF70BD10B5044600F0ACFD2046FFF7FDFD00214034217010BD70B505461A24FFF7B8F8012809D108212846FFF7F5FA0023012221462846FFF780FF70BD0000DC
:405A8000F8B50446002000900E4668460AF064FE002801D00D20F8BD8420005908212030009D00F0F4F920460421383000F0EFF9002E02D1204600F0B3FD2946204602F07D
:405AC00015FA0E480821C28A2046FFF7BBFA204600F00BFF25464035002808D0204600F023F8002801D0092028700020F8BD08202870204600F072FFF7E70000481300209B
:405B0000014610B540310A460978082906D0092907D00A2901D100F091F810BD0B20107010BD00F001F810BD70B50446007925464035052805D0062803D008280FD00C2088
:405B400070BD03220621204602F058FA0D480821C28A2046FFF776FA1120287010E006202873204602F076FA0646AA8A0A20424301212046FFF766FA002E01D10920207163
:405B8000002070BD4813002038B504460020009068460AF0E1FD002801D00D2038BD2046009D00F08BF908202071204600F038FD2946204602F0CCF900213D2001550F204B
:405BC00040210855204600F009FF002038BD00B5024600F0E7FC10214032117000BD10B50446FEF7F7FF012809D04020005D112805D100231A4606212046FFF7BFFE10BD6B
:405C000010B5FFF786FE10BD38B504460021684600910AF0A1FD00280CD12046009902F00EFA05480821C28A2046FFF70BFA0D204034207038BD00004813002038B5044630
:405C40000021684600910AF087FD002801D00D2038BD2046009902F0E7F905480821C28A2046FFF7EFF90C2040342070002038BD4813002000787047F8B50025002801D09A
:405C8000002400E01A4C002C28D0204600F093FC002823D0207903281CD005281CD026464036B18AA07801F03DFDB078012815D10021204601F087FE27468037386800280D
:405CC00002D00AF0B7FD3D600020B0702079072805D007E0042000E006202071F8BD2046FFF70EFD0221204600F092FEF8BD0000BC13002010B54C22115400F046F810BDAC
:405D000010B50446FF21FFF7A8F909202071A07801F038FD10BD000038B5FF216A461180002801D0002400E0064C002C08D011460620FDF703FF684601882046FFF73FFDF5
:405D400038BD0000BC13002010B504468079002809D022214C200155FF212046FFF77DF9204600F012F810BD10B5037902464032002B03D01173092B02D003E0002100E0AB
:405D80002221117300F001F810BDFEB504460089002701902781207926464036002817D0012815D002280AD112E002AA6946204601F0DAFD002807D100980AF031FD204642
:405DC00001F0FAFD0028F0D02046FEF725FDB776254680352868002802D00AF02BFD2F606868002802D00AF025FD6F60317B002902D0019800F044F8A078002100F05CFF29
:405E00002046FFF7BDFAA07801F0B0F8A07800F0F9FC0B20FFF712F900F038FCFEBD70B50E46054602F094FB044606702846FEF7D1FE014601204140204661700C3001F012
:405E400034F8002D10D02889608028464030C1782171002E10D169796171018AE180418A2181808A608107E01820FDF733FEC005C00F207100206080204602F0DEFF70BDDD
:405E80000A4610B50146002003F0CDF810BD10B50AF0D8F910BD000000B50146FFF74AFA002801D0002000E00348002802D002898A4200D0002000BDBC13002038B50446E6
:405EC00080346068002806D168460AF055FC002801D100986060606838BD000010B5014600F074FB0128887802D0FEF77DFE10BD88214843024940186030007F10BD0000C9
:405F00009C13002070B5054604464035A87F012811D1A1788820084A484380186030067F3046FEF7AFFF002805D10220A877A078314601F0E1F870BD9C1300200EB5002254
:405F40000A216B460292198100905A811046029B00990AF0E1FC0EBD10B50E4CE079002816D0FFF718F80C48827FC17F808B00F095FB01280CD10020E07100F014FF04460E
:405F8000AC20FDF7A7FD010B02D0204600F032FA10BD00004C1400209C13002070477047490510B5490F0B00FDF7C4FA060704080C0C0F073E21FFF79DFE10BD0821FFF748
:405FC000D3FE10BDFFF7E1FE10BDFFF7BDFE10BDF8B507460025002D01D0002600E0204E00F096FE3046403044890021418100F0B5FE304600F0DFFA01282CD1A00702D5B2
:406000002846FFF739FEE00602D52846FFF784FEA00602D52846FFF791FF600601D500F0F1FA200602D5284600F01CF8600702D5284600F023FA380402D52846FFF744FBBC
:40604000780402D52846FFF731FBE00703D021463046FFF7A5FF6D1C2D062D0EBBD0F8BDBC130020F8B5002801D0002400E0204C002C39D025464035A878012834D1E98AFA
:40608000A07801F099FA2046FEF7A4FD01282BD002F062FA2A8A6179FFF77CF9064601F0AFF82836B1B2204602F062F8E98AA07801F082FAFF206130FDF70CFD6E8A0D4F8D
:4060C0000146002E11D0304648430B49FCF7F2FF0004000C01D0401C80B27880288A704381B2A07801F010FBF8BD0020F5E70000BC130020520200207102000038B5002862
:4061000001D0002400E00D4C0020009068460AF023FB002811D12046009901F0C5FF607E02210843607606480421C28A2046FEF789FF0221204600F06BFC38BDBC13002075
:406140004813002070B50D46124A010001D0002401E014462034002C1BD0204600F036FA01280AD18820484380186030007FFEF789FE002801D101F0F7FE20464030817E9F
:40618000491B8176204600F029FC2089294602F0ECFE70BD9C13002070B503460088FFF77BFE040013D000F006FA00280FD02079092819D02546997840352973204601F03F
:4061C00049FF0646A878012803D0AA8A02E0022070BDEA880A20424301212046FEF732FF002E01D109202071002070BD0EB5002217216B460292198100905A810120029B8F
:4062000000990AF089FB0EBDF8B5184E0024F079002820D10025AC20FDF75CFC000B21E0204600F075FEFDF755FC07462A46214600F034FA01280FD00D48012187838577A5
:40624000C477F171002D01D0002000E02030002801D000F0C3FBF8BDAC20FDF73BFC000B641CE4B20028DBD1F8BD00004C1400209C13002010B50088FFF70EFE002809D097
:40628000014640310C460978082905D00B2903D00C2010BD022010BDFFF746FC002801D009202070002010BD70B503460088FFF7F3FD040008D0254640352878082805D04A
:4062C0000B2803D00C2070BD022070BD8420005910220830991CFCF72EFF2046FFF7F6FA2878082804D02046FFF7A8FC002801D00A202870204600F071FB002070BD0000FA
:4063000010B50C46002121700088FFF7C5FD03000BD000F050F9002807D009481121807A0840C00603D4112010BD022010BD022020701A8A1889002102F092FE002010BD68
:4063400048130020F8B50F46002100910088FFF7A3FD040012D000F02EF900280ED0E079410641D4617E02264A07002A08DB8907402500291ADA2843E07135E00220F8BDF9
:4063800002F0E6F80021017021894180A1898180217E4170E189C1803E7005460178134802F0C4FB284602F0FEFD1DE0204600F013F9012806D068460AF0CEF9002803D049
:4063C0000720F8BD2A20F8BDE07900992843E071204601F069FE607E0421304360760448C28A2046FEF72EFE0020F8BD1D040000481300203EB500220F236C460292238149
:4064000000910190628169460EC900200AF084FA3EBD000070B5054600F062FA040027D003202071254600264035EE76E6702046FFF7D6F901F0A8F80920FEF7FFFDA07825
:4064400000F082FD0121204600F0E2FA2E706E70AE7000212046FFF7E2FC0749887B401C8873A078FFF74AFE012001F0BFF970BD284601F087F970BD9C13002010B50028A5
:4064800001D0002400E00A4C002C0FD020464030417802290AD1002141702046FEF79AFB002803D10221204600F0B2FA10BD0000BC13002070B503460D460088FFF7ECFC4B
:4064C00004000BD000F077F8002807D012481121807A0840C00603D4112070BD022070BD20464030418A008A491C41430804C10C5888884201D2122070BD20822079072814
:4065000002D12046FFF7FCF8022028702089002102F0CEFD002070BD48130020016A491C016204D1817E491C4906490E81767047C169491CC16104D1C17E491C4906490E9F
:40654000C176704770B500250646002801D0002400E0114C002C1CD0882200212046FCF7F3FDA67000202646207140363070204600F018F8204601F01BFA084820820848B4
:40658000B577807A1121084000D001202075012070BD002070BD0000BC130020B80B000048130020002101628176C161C17620300177417770470079002805D0012803D070
:4065C000022801D001207047002070474030807F002800D00120704740300078002807D0012805D0052803D00E2801D0012070470020704710B5807801F08AF9002800D0EE
:40660000012010BD10B500F0CEFB0446AC20FDF761FA010B02D02046FFF7ECFE10BD000070B5054604464035A87F002823D1FF206075A0788821144A484380186030417FA0
:406640008823491CC9B24177A078584380186030052901D300214177A0788821484380186030467F0677A1783046FEF70BFC002802D00120A87770BD0220A877A0783146A9
:4066800000F03AFD70BD00009C1300200020401C0006000EFBD0002070470000F0B515468207920F85B0C004C00E02926A469080002D01D0002400E0514C002C29D008462E
:4066C00000F026FC03906846808800280BD00298012845D0022843D003280CD03D20005D012872D086E00398FDF7F4F901462046FFF765F87EE00020029002A80AF00CF861
:40670000002807D03D20005D012876D12046FFF705FF72E06846029E8388324600210398FDF74EF90398FDF7D5F901462046FFF746F8284600F0B9FA01AA21463046FEF7EA
:406740003FFE002806D030460AF056F83D204C21085528E0F5773146204601F077FA4CE0002000902789684609F0C6FF002802D0002005B0F0BD6846009E8388321D00210B
:406780000398FDF71DF90398FDF7A4F901462046FFF715F8284600F088FA25464035287E00280CD103E02046FFF7AAFA25E001AA21463046029BFEF737FE002806D0304642
:4067C0000AF010F83D202873EDE710E00298FFF705F8390A000101433770717068468088B070000AF0703046FFF700FD05E02046FFF794FE284600F058FA0120B9E7000051
:40680000BC13002010B5044A917B002901D0491E9173FFF797FE10BD9C130020F8B5074606464037B87F00283DD0B0788821009048431F4945186035287F0099FEF737FBE8
:40684000012831D0287F401CC4B2052C00D300240020B877FF276F772F77A87702460146009800F0C9FD717DFF2903D0304601F060F8777501F078FB00252F4622466946A7
:4068800030460097FEF764FF0099002902D03046FEF725FB641CE4B2052C00D300246D1CEDB2052DEAD3F8BD0320B877F8BD00009C13002010B502460021084B03E00029E7
:4068C00001D0002000E018460479944204D0491C0906090EF3D0002010BD0000BC13002000B50120FFF7E6FF00BD10B5044601F02FFE218901808034616841606168283112
:40690000816002F00BFB10BDF7B50646087982B00C46092807D0A078F0770846FFF756FE012806D010E0304609F07AFF022005B0F0BDA1788820284A484380186030007FD5
:40694000FEF7A0FA012810D0A078FEF741FE01280BD037780121304601F0B3FA25462035062F36D00B2F0FD107E06846027C21463046FEF717FF0D20D9E72046FEF72AF9CF
:40698000012801D1002028772046FFF7A7FA054604AA21463046FEF77CFD01205F2108556946087C0090A07833463A46294600F04FFB69460A7CA0780323294600F0FAFE97
:4069C000A0782946FDF714FF304609F029FF0020ADE70120D7E700009C13002010B502464032937F0021002B03D1927E002A00D00121064AD279002A00D000210279092ACF
:406A000000D10121807800F0FFFE10BD4C14002070B50C460646FEF7DDF8002814D1012C0ED935464035A87800280DD1687802280AD03079092807D03046FFF7DBFD04464A
:406A4000204600F00EFE70BD0124F9E770B50D4601280BD0082808D1A8241146B020FDF73FF829462046FDF73BF870BD2020FAE710B501460820FDF733F810BD10B5044666
:406A8000FF20F130012C01D1FF20D530002200F006FF1020FDF71EF80349A043088001461020FDF71DF810BD5602002010B504461020FDF70FF80449A0430880014610203D
:406AC000FDF70EF810BD00005602002010B50446012802D0082C07D102E0FF20D53001E0FF20F13000F0D0FE1020FCF7F3FF04492043088001461020FCF7F2FF10BD0000E7
:406B00005602002010B504461020FCF7E3FF04492043088001461020FCF7E2FF10BD000056020020F8B507460120B84085B214460E46012229467C2000F0B1FE3246294655
:406B4000782000F0ACFE6078217800020143E078A5780002054360792679000206430C2047430D2080013C182046FCF7B9FF241D29462046FCF7B4FF201D3146FCF7B0FFCF
:406B8000F8BD401880B270478B00034310B5D10191201943C000FCF7A3FF10BD70B505460C46407829780002014341200001FCF797FFE878A978000201430A48FCF790FF61
:406BC00060782178000201438320C000FCF788FFE078A1780002014302480830FCF780FF70BD00001404000070B50D46044681B201208002FCF774FF210C0448FCF770FF38
:406C000081202946C000FCF76BFF70BD0404000070B5054600242846FCF75CFF641CA4B2102CF8D370BD10B50C460146B020FCF757FFFF2021462D30FCF752FF10BD704776
:406C400010B50C460146B020FCF74AFF204600F051FE0021FCF744FF10BD70B50C46054600F005F821462846FFF7DDFF70BD10B50C460146B020FCF733FFFF20214629302C
:406C8000FCF72EFF10BD10B50146B020FCF728FFFF20002220211D3000F001FE10BD10B50146C020FCF71CFF10BD010210B54D310020FCF715FF10BD10B50402002901462A
:406CC00008D0B020FCF70CFF214675310020FCF707FF10BDB020FCF703FF512000214001FCF7FEFE00210348FCF7FAFE21467631ECE70000240A000010B554210020FCF7C1
:406D0000EFFE10BD10B553210020FCF7E9FE10BD10B5034908884880FFF7C8FE10BD00005602002010B550210020FCF7D9FE10BD10B50E2400280CD0C420FCF7CBFE204344
:406D40000146C420FCF7CCFE51210020FCF7C8FE10BDC420FCF7BEFEA043F1E710B502484088FFF7CFFE10BD5602002010B5FCF7D1FF10BD10B552210020FCF7B1FE10BDCA
:406D8000884201D8081A03E00022D243101A401880B2704710B504461820FCF79BFE8004400F207010BD10B5B020FCF793FEC0B210BDF8B50E4601461C461546B020FCF766
:406DC0008FFEFF20E930FCF785FE0746FF200130FCF780FE3080FF200930FCF77BFE2880FF200530FCF776FE208079070698490F0170F8BD10B5C820FCF76CFE10BD10B59B
:406E00000C46002812D05820FCF764FE2070000A60705C20FCF75EFEA070000AE0706020FCF758FE2071000A607110BDFF20C130FCF750FE2070000A6070FF20C530FCF7C6
:406E400049FEA070000AE070FF20C930E8E7000000B5024A00F004F800BD0000FF7F000000B51346FFF78CFF984201D8022800D2002000BD10B50146B020FCF731FE0248EF
:406E8000FCF728FE10BD0000080A000010B52420FCF720FE10BD10B50146B020FCF720FEFF202130FCF716FE10BD70B504466820FCF710FE06466C20FCF70CFE054670201A
:406EC000FCF708FE2670310A6170A570290AE1702071000A607170BD10B50446012905D01820FCF7F7FDC00B207010BD4820FCF7F1FD8007C00FF7E710B50146B020FCF724
:406F0000EFFD0248FCF7E6FD10BD0000280A00000120C0027047000010B50146B020FCF7DFFD0248FCF7D6FD10BD00000C0A000010B50C460146B020FCF7D2FD0321A00159
:406F40004902401810BD00008821074B414310B5C918FF2260314A770A7700228A77114600F04AFA10BD00009C13002088225043074A10B58018FF21603041770177002152
:406F800081770448418EFF201D3000F07DFC10BD9C1300204813002010B50C460146B020FCF79EFDFF202530FCF794FD0222214600F002F810BD000010B50023884201D851
:406FC000081A03E00024E443201A4018044980B2884201D8824200D90123184610BD0000FF7F000010B5C420FCF774FD0006C00F10BD000010B50348FCF76CFDC007C00F72
:4070000010BD00002C0A0000F8B503465078167800020643D07895780002054350791779000288240743002900D098241946B020FCF756FD31462046FCF752FD201D2946D1
:40704000FCF74EFD204608303946FCF749FDF8BDFFB581B014460D4606460A9FFFF768FF3B460021049AFCF71BFD02484019845505B0F0BD5A02002070B506460D46112445
:407080002520A40108214001FCF72AFD2B46324600212046FCF704FD70BD70B5212405466401FFF72FFE10232A4600212046FCF7F7FC70BD10B504464078217800020143B1
:4070C0008F20C000FCF70CFDE078A178000201430148FCF705FD10BD7C04000010B50C460146B020FCF7FCFC802021460143FF202930FCF7F5FC10BD70B50D460146B020C7
:40710000FCF7EEFCFF241D342046FCF7E3FC01090901FF202943013001432046FCF7E0FC70BDF8B500242646012807D0032802D0052808D105E002240A2604E004240C2697
:4071400001E004240D26492701463F013846FCF7C7FC25204001FCF7BDFCC5B228462042F7D0252031464001FCF7BAFC00213846FCF7B6FC2846F8BD70B50D460446014652
:407180001646B020FCF7ACFC512029464001FCF7A7FC31460648FCF7A3FC032189030820FFF794FC210275310020FCF799FC70BD240A000070B50D4604460146B020FCF704
:4071C0008FFCFF2029461930FCF78AFC21024B310020FCF785FC70BD70B5491E8CB205460146B020FCF77CFCFF2021461930FCF777FC29024C310020FCF772FC70BD000032
:40720000054910B5884200D908460146FF206130FCF766FC10BD0000FF0F0000054910B5884200D908460146FF206530FCF758FC10BD0000FF0F000070B5882514460029AD
