:400000000040002011000000390600003906000080B500AF00F014FB80B500AF2A4B12221A6002F001FD294B181C02F075FB012002F00AFD0C2002F0C1FB254B8022D20510
:400040001A60244B234A126802210A431A60224B224A1A60224B224A126808218A431A60FA23DB00181C02F099FC1E4B181C02F0F5FD1D4BB02212011A601C4B1C4A1A606E
:400080001C4BFE2212021A60184B1B4A1A601B4BFE2212021A60154B194A1A60194B802212061A60184B42221A60184B40221A60174B41221A60064B8022D2051A60024BB0
:4000C00000221A60BD4680BD30001040001BB7000C020B4078002E407C002E406A2D00006CF02E40DC050000080301400000014042FF00800003014040FF008004030140CE
:4001000041FF008008010B402C010140140101401001014080B582B000AF72B64A4B00221A60FB1D00221A7023E0FB1D1A78131C5B009B185B00454A9B183B603B681A780B
:40014000597809020A43997809040A43DB781B0613431A1C3B6819795B791B020B439BB2101C191C00F0F0FAFB1D1A78FB1D01321A70FB1D1B78012BD7D9354A354B101CBE
:40018000191C00F0F1FA344B8022D2021A60334BEE2212061A60324BC02292041A60314BCC2292051A60304B992212041A602F4B992212041A602E4B802292051A602D4B87
:4001C000992212041A602C4B8022D2051A602B4B2A4A1278D2B202210A43D2B21A70284B274A1278D2B23C218A43D2B214210A43D2B21A70214B214A1278D2B216210A433B
:40020000D2B21A701F4BD82212041A601E4B7E221A601E4B8022D2021A601D4B3E221A601C4BC0221A601C4B902292031A601B4B01221A601A4B01221A60FFF7EDFE00F0DD
:40024000D3FABD4602B080BD6CF02E40802701008C270100A427010014000B4000000240000202400003024000500F4020500F4028500F4030500F4038500F4000700F4019
:4002800001700F40080004400002044008020440180204400003044008030440000404401804044010B5064C2378002B07D1054B002B02D0044800E000BF0123237010BD91
:4002C00018040020000000007827010008B5084B002B03D00748084900E000BF07480368002B03D0064B002B00D0984708BDC04600000000782701001C040020C80000205F
:400300000000000080B500AF00F012F803F094F8054B1B78012B06D1044B1B78012B02D100F02CF8F2E7F1E7370400203604002080B500AF62B6104B181C00F04BFC00F06D
:4003400073FB00F0CFFAFF2000F0F0FBFF2000F0FDFBFF2000F048FB062000F0ABFA062000F090FA062000F001FC01F037F801F031FCBD4680BDC046E503000090B583B0B1
:4003800000AF01F05FFD01F089F8C04601F0B2F8031C002BFAD1BC1D002001F093FE031C2380BB1D1A880D4B9A4213D0BB1D1B88642B0FD80A4B1B88BA1D12889A4209D03C
:4003C000074BBA1D12881A80BB1D1B88DBB2181C00F0AAF8BD4603B090BDC046FFFF00003404002080B588B000AF786039607B68282B0CD004D8012B09D0262B0BD083E064
:40040000422B15D04C2B28D0412B0DD07CE0002000F038FC78E03E4B1B78042B03D1002000F030FC70E06FE03A4B01221A706BE0384B00221A70384B00221A70374B002241
:400440001A70364B00225A70344B00229A70334B0022DA7000F090F856E03B68FB61FB699A892F4B5B899A4215D1FB695B681A782A4B1A70FB695B685A78284B5A70FB694A
:400480005B689A78254B9A70FB695B68DA78234BDA7000F071F8FB699A89214B9B889A4223D1FB695B681A781B4B1A701A4B1A783B1C18331A703B1C183300225A703B1CCC
:4004C0000C330F221A813B1C0C333A1C18321A603B1C0C3302229A803A1C0C32114B101C00211A1C00230DF08FFD0E4B1A785B781B021A4300231204120C1B0C1B04134323
:40050000181C0DF051F8C046BD4608B080BDC046B81D0020370400203604002040130020482D0100C01D002080B586B000AF021CFB1D1A703B1C0C330E221A813B1C0C33DC
:40054000FA1D1A603B1C0C3301229A80094B3A1C0C3219785B781B02194300230904090C1B0C1B040B43181C111C0CF0BFFFBD4606B080BDC01D002080B582B000AFFB1D3D
:400580002A4AD2781A70294B1B78FA1D12785343181CFF2102F0A4FE031C1A1CBB1D1A70224B5B78FA1D12785343181CFF2102F097FE031C1A1C7B1D1A701C4B9B78FA1DBC
:4005C00012785343181CFF2102F08AFE031C1A1C3B1D1A70BB1D1B78DB43DBB2181C00F0A5FA7B1D1B78DB43DBB2181C00F0AEFA3B1D1B78DB43DBB2181C00F0F5F90C4B5C
:4006000013221A810A4B094A1A60094B04229A80074B0422DA80064A064B101C00211A1C00230DF0F1FCBD4602B080BD4013002034130020C01D002080B500AFFEE7C04699
:4006400080B586B000AF224B7B61224B3B61204B7B6135E03B691B68FB603B695B68BB603B699B683B6000237B600CE0FB681A68BB681A60BB680433BB60FB680433FB6096
:400680007B6804337B607A683B689A42EED13B69DB683B6000237B6008E0BB6800221A60BB680433BB607B6804337B607A683B689A42F2D13B6910333B617B69013B7B61F1
:4006C0007B69002BC6D102F06DFEFFF71BFEFEE701000000742E010080B582B000AF154B144A126801218A431A6000237B600FE07B68032B04D8104B7A689200D35800E0F4
:400700000E4B0F4A796889008B507B6801337B607B682F2BECD9FFF7FDFC0A4B00221A60044B044A126801210A431A60BD4602B080BDC04600001040000000003906000067
:4007400000000020C000002080B582B000AF786039607A683B68101C00211A1C02F060FEBD4602B080BDC04680B586B000AF7860396000233B6100237B612EE07B699B00CC
:400780007A68D3181B68BB603B1C0F33BA681A70BB68FF229343BB6017E03B695B003A68D3181B781A1CBB68D3183A69520039688A1852781A703B6901333B613B1C0F3361
:4007C0001A783B1C0F33013A1A703B1C0F331B78002BE2D17B6901337B617B69052BCDD9BD4606B080BDC04680B500AF064B03221A60064B03221A60054B00221A60012084
:4008000000F008F8BD4680BD3000304030003140000E3F4080B584B000AF021CFB1D1A70154B1B68FB60FB1D1B78002B05D0FB68802212061343FB6003E0FB685B005B0827
:40084000FB600D4BFA681A600C4B1B68FB60FB1D1B78002B05D0FB68982292051343FB6003E0FA68064B1340FB60044BFA681A60BD4604B080BDC04680033A4008010B40EA
:40088000FFFFFFD980B582B000AF021CFB1D1A70064B064A1168064A1140FA1D127892040A431A60BD4602B080BDC04608030440FFFFE3FF80B582B000AF021CFB1D1A70D6
:4008C000064B064A1168064A1140FA1D127892040A431A60BD4602B080BDC04608020440FFFFE3FF80B500AF064B1B78002B04D100F00AF8034B01221A7000F03DF8BD463C
:4009000080BDC0463804002090B583B000AFFF2000F040F8B82000F057F8012000F064F8012000F071F8FC1D01F0FFFE031C23700F4B0F4A1278D2B201210A43D2B21A70B5
:40094000FB1D1B78181C01F0F4FE0A4B094A1278D2B202218A43D2B21A70064B054A1278D2B204218A43D2B21A70BD4603B090BD92000F4072000F4080B500AF044B044A2D
:400980001278D2B201210A43D2B21A70BD4680BD72000F4080B582B000AF021CFB1D1A70FB1D1B78002B07D0054BFA1D12781A70044BFA1D12781A70BD4602B080BDC0463B
:4009C00042000F4002000F4080B582B000AF021CFB1D1A70034BFA1D12781A70BD4602B080BDC04612000F4080B582B000AF021CFB1D1A70034BFA1D12781A70BD4602B069
:400A000080BDC04622000F4080B582B000AF021CFB1D1A70034BFA1D12781A70BD4602B080BDC04632000F4080B500AF064B1B78002B04D100F00AF8034B01221A7000F095
:400A40003DF8BD4680BDC0463904002090B583B000AFFF2000F040F8B82000F057F8012000F064F8012000F071F8FC1D01F05DFE031C23700F4B0F4A1278D2B201210A43EB
:400A8000D2B21A70FB1D1B78181C01F052FE0A4B094A1278D2B202218A43D2B21A70064B054A1278D2B204218A43D2B21A70BD4603B090BD93000F4073000F4080B500AF1B
:400AC000044B044A1278D2B201210A43D2B21A70BD4680BD73000F4080B582B000AF021CFB1D1A70FB1D1B78002B07D0054BFA1D12781A70044BFA1D12781A70BD4602B09F
:400B000080BDC04643000F4003000F4080B582B000AF021CFB1D1A70034BFA1D12781A70BD4602B080BDC04613000F4080B582B000AF021CFB1D1A70034BFA1D12781A7096
:400B4000BD4602B080BDC04623000F4080B582B000AF021CFB1D1A70034BFA1D12781A70BD4602B080BDC04633000F4080B582B000AF021CFB1D1A70064B064A1168064A02
:400B80001140FA1D127852050A431A60BD4602B080BDC04608030440FFFF1FFF80B500AF064B00221A70064B00221A70054B00221A7000F009F8BD4680BDC046C31D0020B1
:400BC000BC1D0020C21D002080B500AF00F05CFBBD4680BDB0B58CB002AF78603B1C263301221A801F4B1B78002B04D1FFF7D6FF1C4B01221A707B68002B2CD03A1C0C3281
:400C0000194B111C1A1C1823081C111C1A1C02F0FEFB3C1C263415481549164A3B1C0C330625009502F01EFC031C2380124B7A681A603B1C26331B88002B0CD10F4B0122BE
:400C40001A703C1C26340E4B181C14210F220DF0C3F9031C23803B1C26331B88181CBD460AB0B0BD3C04002098280100B10F000050130020640A000048130020B81D0020D7
:400C80009429010090B585B000AF021CFB1D1A70FB1D1B78022B04D93B1C0E3301221A804BE0294B1B78042B42D1284B1B78DBB21A1C042313403BD1FB1D1B78002B0BD10E
:400CC000234B1E221A82224B5B6820221A80204B5B6830225A8010E0FB1D1B78012B0CD11B4B96221A821A4B5B68C822D2001A80174B5B688022D2015A80164BFA1D1278F2
:400D00001A703C1C0E34124B181C0BF0C5FA031C23803B1C0E331B88002B08D10B4B1B78DBB204221343DAB2084B1A7005E004E03B1C0E330422FF321A803B1C0E331B885B
:400D4000181CBD4605B090BDB81D0020C31D0020FC000020C21D002080B584B000AF78600A1CFB1C1A700023BB60BB68002B20D07B689A79BB681A703B1C0F3300221A700F
:400D800012E03B1C0F331B780133BA68D3183A1C0F32127879688A5C1A703B1C0F331A783B1C0F3301321A703B1C0F331B78052BE7D9BD4604B080BD80B582B000AF7860E3
:400DC0007B681B781A1C7B6801331B781B029BB213439BB2181CBD4602B080BD90B585B000AF78603B1C0F3300221A707B689A890B239A4237D17B681A1D7B683C1C0F3474
:400E0000101C00211A1C40230DF0FEF8031C23703B1C0F331B78002B1DD17B685B68181CFFF7CAFF031C1A1C022313409BB2002B08D0104B1B68822251007A68081C111C26
:400E4000984708E00B4B1B680622111CFF317A68081C111C9847084B1B78DBB201229343DAB2054B1A703B1C0F331B78181CBD4605B090BD48130020C31D002090B585B00F
:400E800000AF78603C1C0F347B68181CFFF7A6FF031C2370144B1B78DBB21A1C012313401FD13B1C0F331B78002B16D03B1C083312229A707B689A893B1C08331A803B1CFA
:400EC00008333A1C0F321278DA707B683A1C08321868111C0CF0EEFA03E07B6818680CF063FBBD4605B090BDC31D002080B582B000AF7860BD4602B080BDC04680B500AFD9
:400F0000034B00225A70024B00221A70BD4680BDC01D002080B582B000AF7860BD4602B080BDC04680B500AFBD4680BD80B584B000AF78603B1C0E3300221A707B689B790C
:400F4000002B1CD13B1C0F3300221A7012E03B1C0F331B787A68D35C002B04D03B1C0E3301221A700BE03B1C0F331A783B1C0F3301321A703B1C0F331B78052BE7D93B1CC2
:400F80000E331B78181CBD4604B080BD80B582B000AF021CBB1D1A80BD4602B080BDC04680B582B000AF7860BD4602B080BDC04680B584B000AF021C3960FB1D1A70A34B52
:400FC0001B78DBB201221343DAB2A04B1A70FB1D1B78712B00D91EE19A009D4BD3181B689F463B1C0C3307221A703B1C0C3300225A703B1C0C33181C03F0D5FC3B1C0C3374
:4010000007221A703B1C0C3301225A703B1C0C33181C03F0C8FC8F4B1B68181CFFF786FF031C002B11D08B4B1B68181C02F008FA884B1B68181C0021FFF78EFE854B1B68C1
:40104000181C0121FFF788FE19E0834B1A78834B1A70834B1A78814B5A70824B1A787F4B9A707E4B181C02F0EBF97C4B181C0021FFF772FE794B181C0121FFF76DFE0320D1
:401080000AF0CCFF784B04221A70C5E03B68181CFFF740FFC0E03B681A78744B1A70BBE06A4B1B78DBB21A1C202313400ED1704B1B78102B02D16E4B0522DA706D4B1A783E
:4010C0006B4B101C191C0BF0B1F8A5E0A4E03B68181CFFF765FF9FE03B68181CFFF760FF614B02221A7097E05F4B04221A7093E05D4B1B78022B41D0544B1B78DBB21A1C44
:40110000012313403AD0514B1B78DBB21A1C042313400BD0544B03221A704C4B1B78DBB204229343DAB2494B1A7027E0474B1B78DBB21A1C082313400BD04B4B04221A70AE
:40114000424B1B78DBB208229343DAB23F4B1A7014E0454B1B78032B10D1434B04221A70454B1B78002B09D10120FFF78BFD031C002B03D13C4B03221A704DE04CE03B68A7
:401180001B88181CFFF702FF46E03A4A3B68111C1A1C0223081C111C1A1C02F038F9354B1B789A00354BD318354A111C1A1C0423081C111C1A1C02F02AF9FFF7B3FE2BE073
:4011C000FFF79CFE28E03B685B88162B05D83B1C0E333A6852881A8003E03B1C0E3317221A803B683A1C0E321288198800230904090C1B0C1B040B43181C111C0CF066F9AE
:401200000AE03B68181CFFF739FE05E03B68181CFFF76CFE00E0C0460C4B1B78DBB21A1C112313400FD0094B1B78DBB201229343DAB2064B1A70134B1B68FA1D11783A68B4
:40124000081C111C9847BD4604B080BDC31D0020802B0100180100207CF1FF0F100100207DF1FF0F7BF1FF0FB81D0020BC1D0020A8010020C01D0020C21D00208029010066
:40128000B41D00204813002080B500AFBD4680BD80B582B000AF00237B6007E00A4A7B68D31800221A707B6801337B607B68042BF4D900F00BF8002000F066FB00F036F981
:4012C000BD4602B080BDC046E81D002080B582B000AF244B1B68DAB2234B1A70224B1B787B607B680F2293437B60204B1B78DBB21A1C0F2313407A6813437B607B68F02257
:4013000093437B60194B1B78DBB21A1CF02313407A6813437B60134B7A681A60144B154A1A60154B154A1A60154B1B687B607B680F2293437B607B68062213437B60104B84
:401340007A681A60102001F02FFC0E4B1020191C01F09AFB1020032101F0BCFBBD4602B080BDC04600FF2840C41D002062F1FF0F0800284000020001040028400008A0013C
:40138000000402405D22000080B582B000AF01F091F901F047F90020002101F053F90020002101F097F9FF2001F026F9402001F06BF9084B1B687B607B68074A13437B606C
:4013C000044B7A681A60102001F0D8FBBD4602B080BDC046040028400010088080B500AF0C4B1B78002B04D1FFF752FF094B01221A70FFF7C9FF00F09BFF074B01221A70F5
:40140000064B064A12688021C9030A431A60BD4680BDC0466E040020600400200400284080B584B000AF021CFB1D1A70FB1D1A78FB1D01321A70FB1D1B78052B00D10BE0A7
:40144000FB1D1B78074A101C191C00F0B5FA031CFB60FB68002BE9D0FB1D1B78181CBD4604B080BDAC01002080B582B000AF7860084B00221A707B68DAB2074B1A70054B87
:4014800081221A707B68181C00F05AF9BD4602B080BDC046610400206204002080B500AF124B00221A70124BFF221A70104B1B78DBB2181CFFF7B4FF031C1A1C0C4B1A701F
:4014C0000B4B1B78DBB2042B0DD8084B1B78DBB201221343DAB2054B1A70054B1B78DBB2181C00F02DF9BD4680BDC046610400206204002080B500AF044B1B78DBB21A1C7C
:4015000001231340181CBD4680BDC0466104002080B582B000AF7860034B7A685200D35A181CBD4602B080BD6404002080B582B000AF00237B6006E07B68181C00F070F881
:401540007B6801337B607B68042BF5D9BD4602B080BDC04690B587B000AF78602C4A7B68D3181B787B612B4A7B68D3181B78391C13311A1C9218D3180B70264A7B68D318F8
:401580001A783B1C123392001A703C1C113401F0CCF8031C2370204B7A699200D3581B68FB603B1C12331B780F22111C99400B1CDA43FB681340FB603B1C12331B780422E4
:4015C000141C9C40231CFA681343FB60134B7A699200D358114A796989008A581268391C133109780720041C8C40211CC9430A401A60094B7A699200D358FA681A603B1C0C
:4016000011331B78181C01F094F8BD4607B090BD582D0100742D0100842D01009C2D010090B589B000AF78603F4A7B68D3181B787B613E4A7B68D3181A783B1C1333920095
:401640001A703A4A7B68D3181B78391C12311A1C9218D3180B700023FB61354A7B68D3181B78BB61334B7A699200D358314A796989008A581268391C133109780F20041CD9
:401680008C40211CC9430A401A60BB69022B01D10023BB61BB69012B01D00623FB613C1C113401F042F8031C2370234B7A699200D3581B68FB603B1C12331B780722111C5E
:4016C00099400B1CDA43FB681340FB603B1C12331B78FA69141C9C40231CFA681343FB60154B7A699200D358FA681A603B1C11331B78181C01F01DF8104B7A699200D3588D
:401700000E4A796989008A58126808487968411809780120041C8C40211CC9430A401A60BD4609B090BDC046582D0100742D0100E81D0020842D01009C2D0100B42D0100AB
:4017400090B589B000AF78603B1C1B334D497A688A1812781A703B1C1B331A784A4B9200D358FB61494A7B68101C191C00F024F9031C7B61FA69464B9A420AD87B69FA69D4
:40178000111C99400B1CFB61FB69FF2212041343FB6100F08FFF00F045FF3E4A7B68D3181B78013B9BB2181C002100F04BFF3A4A7B68D3181B78013B9BB2181C002100F0ED
:4017C00089FFFF2000F018FF402000F05DFF102001F0EAF9314B802252021A60C0462F4B1B681B0C1B04FAD12D4B01221A60102001F0F0F9102001F0C1F9102001F0D4F9A3
:40180000284B1B683B613A69274B13403B61274A7B68D3181B781A1C25497B68CB181B781B0413433A6913433B611E4B3A691A60204B1B683B613A691F4B13403B613B6989
:401840001E4A13433B61102001F098F97B68181CFFF780FE3C1C0F3400F067FF031C2370144B3A691A60002000F056FF0B4BFA691A603B1C0F331B78181C00F05AFFBD466E
:4018800009B090BD7C2D0100C4010020E41D0020FFFFFEFFF01D0020CC1D00200C002840140028400800284000FF80FFD41D0020DC1D002004002840FF1FDFFF20E02000B1
:4018C00080B586B000AF7860254B1B6899B2254B7A685200D152244A7B68D3181B787B61224B7A699200D258214B9A4215D8214A7B68101C191C00F05FF8031C3B61194BF0
:401900007A685200D35A1A1C3B69111C19410B1C99B2144B7A685200D1527B68181CFFF77FFE102001F040F9134B1B68FB60FA68124B1340FB60FB68A02212021343FB6046
:401940000D4BFA681A600E4B0D4A11680D4A0A401A60102001F012F9BD4606B080BDC0460C002840640400207C2D0100C4010020FFFFFEFFE41D002004002840FF1FDFFFB8
:401980000800284000FF80FF80B584B000AF78607A68032313407B60064B1B68FB607B685B02FA681343FB60024BFA681A60BD4604B080BD0400284080B584B000AF786018
:4019C00039603B68DB08FB603A680723134001229A403B1C0B331A707A68FB68D3181B783A1C0B3212781340DBB2002B01D0012300E00023181CBD4604B080BD80B586B0BC
:401A000000AFF860B9607A60BB68DB087B61BA680723134001229A403B1C13331A707B68002B0DD0FA687B69D318F9687A698A1811783A1C133212780A43D2B21A700EE00E
:401A4000FA687B69D318F9687A698A181278391C13310978C943C9B20A40D2B21A70BD4606B080BD80B584B000AF78600023BB600023FB6014E07B68181CFFF7F5FCC04632
:401A8000FFF738FD031C012BFAD07B68181CFFF73FFD031CBA68D318BB60FB680133FB60FB68002BE7D0BB689BB2181CBD4604B080BDC04680B588B000AF786039600023D1
:401AC000FB613AE000237B611F4AFB69D3181B783B611E4AFB69D3181B78BB61BA693B69D318FB600FE03A68BB69D3181B781A1C7B699A4204D93A68BB69D3181B787B61F1
:401B0000BB690133BB61BA69FB689A42EBD30F4AFB69D3181B78BB6108E03A68BB69D3187A69D2B21A70BB690133BB61BA69FB689A42F2D3FB690133FB61FA697B689A427F
:401B4000C0D3BD4608B080BDD02D0100CC2D010080B582B000AF78600E4B7A685200D15A0D4B7A685200D1520C4A7B68D31800221A700B4A7B68D31800221A70054B7A68BC
:401B80005200D15A074B7A685200D152BD4602B080BDC04664040020700400207C04002084040020081E002080B582B000AF78607B68181CFFF758FCC046FFF79BFC031C5C
:401BC000002BFAD17B68181CFFF7C2FFBD4602B080BDC04680B582B000AF00237B6006E07B68181CFFF7E0FF7B6801337B607B68042BF5D9BD4602B080BDC04690B587B0FD
:401C000000AF78603B1C0F337A497A688A1812781A703B1C0F331A783B1C0E3376498A5C1A703B1C1033754A796849008A5A1A80734B1B78002B15D0724B7A685200D35AB7
:401C40003C1C10343A1C10321288101C191C00F0E7FA031C23806B4B7A685200391C10310988D1527B68DAB26749644B081C111C1A1C01F0DDF8654B7A685200D35A3A1CEC
:401C8000103212889A4212D3614A7B68D31800221A705E4B7A685200D25A3B1C1233391C103109888A1A1A8001237B610CE0574B7A685200D15A3B1C12333A1C103212889D
:401CC0008A1A1A8000237B617B69002B28D13B1C0F331B784F4AD35C3A1C123212889A421ED94B4A7B68D3181A784B497B68CB181B789A4209D37B68181CFFF729FF444A47
:401D00007B68D31800221A704CE0414A7B68D3181B780133DAB23E497B68CB181A7041E03B1C0E331B789BB23A1C123212889A420CD93B1C0F331B78364AD35C3A1C123277
:401D400012889A422ED27B69002B2BD12F4B7A685200D35A1B02BB60304A7B68D3181B78BA681343BB603B1C10331B88BA68D318BB60264B7A685200D35ABA68D31ABB6000
:401D8000BB681B0A99B2214B7A685200D152BB68DAB222497B68CB181A701D4A7B68D31800221A703B1C0E331B789BB23A1C123212889A4216D97B69002B13D03B1C12337D
:401DC0001B88FF2B05D9164A7B68D318FF221A700DE03B1C12331B88DAB211497B68CB181A7004E00E4A7B68D31800221A70BD4607B090BD7C2D0100F81D002064040020D9
:401E0000CD010020081E00204C1E002070040020FC1D0020041E0020C80100207C0400208404002080B582B000AF78607B68181C00F000FB7B68181CFFF7E0FEBD4602B014
:401E400080BDC04680B582B000AF00237B6011E00B4A7B68101C191CFFF7AEFD031C3B603B68002B03D07B68181CFFF7DBFF7B6801337B607B68042BEAD9BD4602B080BDE5
:401E8000AC01002080B584B000AFFB1D1870BB1D19707B1D1A703B1C0E33FF221A703B1C0D3300221A70FB1D1A78204BD318BB603B1C0F3300221A702AE03B1C0F331B78FE
:401EC000BA68D3181B787A1D12789A4219D23B1C0F331B78BA68D3181B783A1C0D3212789A420ED23B1C0E333A1C0F3212781A703B1C0F331B78BA68D2183B1C0D33127817
:401F00001A703B1C0F331A783B1C0F3301321A703A1C0F32BB1D12781B789A42CDD33B1C0E331B78181CBD4604B080BD8404002090B589B000AF041C081C111C1A1CFB1DA7
:401F40001C70BB1D18707B1D1970BB1C1A80BB1D1A785A4BD318BB613B1C1F3300221A70FB1D1B78002B05D03B1C1F33FA1D1278013A1A703B1C1733FA1D127801321A70BF
:401F8000FB1D1B78BA69D3181A784D4B5A70FB1D1B78002B0BD14A4B00221A703B1C17331B78BA69D3181A78454B9A7022E0FB1D1A787B1D1B78013B9A420BD13B1C1F339F
:401FC0001B78BA69D3181A783D4B1A703C4B00229A700FE03B1C1F331B78BA69D3181A78374B1A703B1C17331B78BA69D3181A78334B9A70324B1B783A1C303212789A4288
:4020000009D22F4B1A783B1C30331B78D31ADAB22B4B1A7002E02A4B00221A70284B5A783B1C30331B78D31ADAB2254B5A70244B9B783A1C303212789A4209D2204B9A78B3
:402040003B1C30331B78D31ADAB21D4B9A7002E01B4B00229A701A4B9B781A1C184B1B78D31A3B61164B1B781A1C154B5B78D218134B9B78D318FB603B691B02181CF96833
:4020800001F02EF9031C1A1CFB1D1B781B02D318FB60BB1C1B881AB2FB685343FB60FB68FE22D2019B181A0C3B1C0B331A703B1C0B331B78181CBD4609B090BD84040020B0
:4020C0009404002090B587B002AF78603B1C0D334F497A688A1812781A703B1C0C334D497A688A1812781A703B1C0B3300221A703B1C0A3305221A70474A7B68D3181B7820
:402100003C1C09343A1C0B3211783A1C0A321278081C111C1A1CFFF7B5FE031C23703B1C09331B78FF2B5AD0C8235B013B497A688A1814783A1C093210783A1C0B32117866
:402140003A1C0A3212780094FFF7F2FE031C1A1C3B1C0E331A803B1C0C331A781F2313404ED03B1C08333A1C0D32127801321A703B1C0D331B78264AD35C002B0FD13B1CCE
:4021800008331B783A1C0E321288D1B2204AD1543B1C0D331B781E4A0121D15430E03B1C0C331A78082313402AD03B1C08331B78174AD35C3C1C0E343A1C0E321288101CDB
:4021C000191C00F02DF8031C23803B1C08331B783A1C0E321288D1B20D4AD15410E03B1C0E33012252421A803B1C0C331A781F23134005D03B1C0D331B78054A0021D15455
:402200003B1C0E331B88181CBD4605B090BDC046D8010020D4010020181E0020F81D002080B584B000AF0A1CBB1D011C19803B1D1A80BB1D1A883B1D1B88D318FB603B1DDA
:402240001B885B00FA68D318FB60FB689B08FB60FB689BB2181CBD4604B080BD80B500AF102000F0A1FC2C4B01221A602B4B1B78DBB2181CFFF724FB294B1B78DBB2DBB2CA
:402280005BB2002B08DA264B1B78DBB201229343DAB2234B1A703AE0204B1B78DBB2181CFFF7BEF8031C1A1C1C4B1A701B4B1B78DBB2042B06D8194B1B78DBB2181CFFF7EA
:4022C0003FFA24E0164B1B78DBB201229343DAB2134B1A70124B1B78DBB21A1C4023134015D0104B00221A700DE00E4B1B780D4A12780D49895C0D4AD1540A4B1B780133D1
:40230000DAB2084B1A70074B1B78002BEDD0102000F034FCBD4680BD14002840620400206104002098040020C81D0020AC01002080B582B000AF364B05221A70344B0122D8
:402340005A70334B05229A70314B0C22DA80304B304A9A802E4B304A9A6000F0E1F800233B6007E02D4B3A6892002D49D1503B6801333B60264B5B781A1C3B689A42F1D8FF
:4023800000237B600CE0274A7B68D31804221A70254A7B68D31801221A707B6801337B607B68042BEFD900F0C7F8194A1F4B101C191C00F087FC1E4B0120191CFFF77AFB14
:4023C000134B181C00F090FC114A184B101C191C00F078FC164B0120191CFFF76BFB0C4B181C00F0A5FC0A4B181C00F0BFF800237B6006E07B68181C00F01CF87B680133D7
:402400007B607B68042BF5D9BD4602B080BDC0464C1E002098090000E82D0100C40100200000FF0FCC1D0020F01D00209A0D0000D41D002090B587B002AF7860314A7B6864
:40244000D3181B78FB607B68D9B2FB68DBB22E482E4A2F4C00942F4C019400F075FD3B1C0B332B49FA688A1812781A70294AFB68D3181A782849FB68CB181A703B1C0B336C
:402480001B78DB2B09D83B1C0B331B78DB08DAB22249FB68CB181A7031E03B1C0B331B78EC2B09D83B1C0B331B781B09DAB21B49FB68CB181A7022E03B1C0B331B78F42B4A
:4024C00009D83B1C0B331B785B09DAB21349FB68CB181A7013E03B1C0B331B78F92B09D83B1C0B331B789B09DAB20C49FB68CB181A7004E0094AFB68D31800221A70BD46E6
:4025000005B090BD7C2D01004C1E002064040020181E0020F81D0020041E0020141E002080B500AF034B034A126840218A431A60BD4680BD0400284080B582B000AF094B07
:402540001B687B607A68084B13407B607B688022920013437B60034B7A681A60BD4602B080BDC04608002840FFFCFFFC80B584B000AF78600023FB6017E01A4AFB68D31833
:402580001B785B08DAB21849FB68CB181A70154AFB68D3181B7801335B08DAB21149FB68CB181A70FB680133FB607B681B781A1CFB689A42E1D8102000F0F6FA0B4B1B685C
:4025C000BB60BA680A4B1340BB60BB68094A1343BB60064BBA681A60102000F0CFFABD4604B080BDD41D0020DC1D002008002840FFFCFFFC0002000180B582B000AF7860A9
:40260000C046064B1B68002BFBDB044B7A68120203490A431A60BD4602B080BD000001404000008080B500AFC046044B1B68002BFBDB024B024A1A60BD4680BD0000014023
:402640004000004080B584B000AF0A1CBB1D011C19807B1D1A700B4B1A6807231340FB60BB1D1B881A02FB681A437B1D1B78D900FF230B401343BB60024BBA681A60BD4617
:4026800004B080BD0003014080B582B000AF7860C046064B1B68002BFBDB044B7A68120203490A431A60BD4602B080BD000001404100008080B500AFC046044B1B68002BE9
:4026C000FBDB024B024A1A60BD4680BD000001404100004080B584B000AF0A1CBB1D011C19807B1D1A700B4B1A6807231340FB60BB1D1B881A02FB681A437B1D1B78D900F6
:40270000FF230B401343BB60024BBA681A60BD4604B080BD040301400230800803D00138FDD1C046C046C0467047EFF3108072B6704780F31088704780B500AF0B4B0B4A97
:40274000126801218A431A60094B094A126830218A4310210A431A60054B054A126807218A4301210A431A60BD4680BD00F02E4000FF2E4080B500AF0E4B0E4A126802210B
:402780008A431A600C4B0C4A126807218A4302210A431A60084B084A126830218A4320210A431A60034B034A126801210A431A60BD4680BD00F02E4000FF2E4090B585B004
:4027C00000AF78607B68022B00D8BAE07B68302B00D9B6E05E4B1B78DBB21A1C7B689A420AD35C4A3B1C0F3312781A705A4A3B1C0E3312781A703FE0584B1B78DBB21A1CCD
:402800007B689A420AD3564A3B1C0F3312781A70544A3B1C0E3312781A702DE0524B1B78DBB21A1C7B689A420AD3504A3B1C0F3312781A704E4A3B1C0E3312781A701BE043
:402840004C4B1B78DBB21A1C7B689A420AD34A4A3B1C0F3312781A70484A3B1C0E3312781A7009E0464A3B1C0F3312781A70454A3B1C0E3312781A707B68DA1E3B1C0C337E
:4028800041498A5C1A703C1C0B34FFF74EFF031C23703B1C0C331B782F2B0DD97B682A2B0AD93A4B19221A600520FFF735FF3B1C0D3319221A7007E0344B1B68D9B23B1C5E
:4028C0000D333F220A401A703A1C0C323B1C0D3312781B789A4208D22C4B7A68033A2A498A5C1A600520FFF717FF294B7A68254952181278D2B21A60264B3A1C0F32127883
:402900001A60254B3A1C0E3212781A60052000F0A5F93A1C0C323B1C0D3312781B789A4208D91A4B7A68033A17498A5C1A600520FFF7F2FE3B1C0B331B78181CFFF7F9FEC3
:4029400002E0002000F05CF9BD4605B090BDC046C0F1FF0FC1F1FF0FC2F1FF0FC3F1FF0FC4F1FF0FC5F1FF0FC6F1FF0FC7F1FF0FC8F1FF0FC9F1FF0FCAF1FF0FCBF1FF0FCF
:40298000CCF1FF0FCDF1FF0F202E01002CFF0B4028FF0B401CFF0B4020FF0B4080B584B000AF78600023FB60154B154A126801210A431A60134B144A1A60144B134A12687D
:4029C000802109020A431A607B68002B13D01023FB600DE0012000F041F900F019F8031C002B02D00023FB6005E07B68013B7B607B68002BEED1FB68181CBD4604B080BDDB
:402A000060F02E4078002E400220000010002E4080B500AF034B1A6801231340181CBD4680BDC0460C002E4080B500AFFFF784FE044B044A1268802109060A431A60BD4646
:402A400080BDC04600F02E4080B584B000AF78600C4B1A6801231340FB607B68002B02D0012B03D005E0FFF767FE06E0FFF782FE03E0002000F0C4F8C046FB68181CBD4650
:402A800004B080BD00F02E4080B584B000AF021C3960FB1D1A7080239B05FB60FB1D1B781F2B02D9002000F0ABF8FB1D1B7810339B00FA68D3181B68BB60FB1D1B781033D3
:402AC0009B00FA68D3183A681A60BB68181CBD4604B080BD90B587B000AF0A1CFB1D011C1970BB1D1A70BB1D1B78032B02D9002000F086F8FB1D1B781F2B02D9002000F034
:402B00007FF8FB1D1A7803231340DB0006337B613C1C1334FFF709FE031C2370FB1D1B789B08DBB29B0014495B181B68FB607B690322111C99400B1CDA43FB681340FB6035
:402B4000BB1D1A787B69111C99400B1CFA681343FB60FB1D1B789B08DBB29B00064A9B18FA681A603B1C13331B78181CFFF7E1FDBD4607B090BDC04600E400E080B582B002
:402B800000AF021CFB1D1A70064BFA1D11781F220A400121081C9040021C1A60BD4602B080BDC04600E100E080B582B000AF021CFB1D1A70064BFA1D11781F220A4001214F
:402BC000081C9040021C1A60BD4602B080BDC04680E100E080B582B000AF021CFB1D1A70064BFA1D11781F220A400121081C9040021C1A60BD4602B080BDC04680E200E0D6
:402C000080B582B000AF021CFB1D1A7001BEBD4602B080BD80B582B000AF786008E00C4B1B68181CFFF778FD7B680A4A9B187B607A6880231B029A42F1D8074B1B687A68FB
:402C40005343181CFFF768FDBD4602B080BDC046F00100200080FFFFE801002080B582B000AF021CBB1D1A80BB1D1B88044A12785343181CFFF750FDBD4602B080BDC046A1
:402C8000EC010020F7B59C180023071C01910092237008268025237800982B432370BB685B6A9847019A904202D22378AB432370013E6D08002EEED12378F82B01D9F8232B
:402CC0002370F7BD70B5051C0E1C00242B789C4208D2AB68221C1B68281C311CFFF7D2FF0134F3E770BD000038B5051C00242B789C4218D2AA6811680B5DDB080F2B00D9B0
:402D00000F230949D268C95C08481155AA68042B03D9536B211C012202E0536B211C002298470134E3E738BDD82D0100E41D0020F0B5051C89B000266B789E4265D2AB6894
:402D4000186A805D0290002801D101210291DA69925D009200982A78904254D29A689B69115C0F22114004910099B00000221A504B002749009C591805912649039059188D
:402D8000069125495918079102980099019243189C4238D2AF68AB88FA68E888115D584300F09EFA3B68195D00F04CFA04991B4B484340005A2802D95B084008FAE7BA6926
:402DC00003991B0C1B045350154B82081855154BC0081A55144B0F221855144B1A550199059801235B42435206980023435207984352AB689B681B19197801340A401A709A
:402E0000019A0232C0E7013696E709B0F0BDC0462C1E0020581E0020381E00200000FFFF441E0020641E0020241E00201C1E0020F0B54B0089B003939A5A039C3B4B039F2E
:402E4000E55A3B4E551B02953A4DE2527D5B745C0495394D394E7D5B394F05957F5C029D069787686400BF68735C7F5CB4460797EF0FE419EE170F272740AD1901977540FD
:402E80009D4203D2012B05D0013B00E00133FF243F2B00D89C00019E67467B540F2E2BD0002E26D0A54227D8079F049D3C09161EAE4200D92E1C059F151EBD4200D23D1CDB
:402EC00009220027A2427F41BC466444321C0A2C14D1AA1B934207D9069FBF08BC469C45924152429B1A00E00133164A5354321C04E0151C019C01E0151C00240C4B019E9D
:402F0000039F5E540B4B2401DA530B4B0F22DD5383689B685B181D782A401A7083689B6859180B781C430C7009B0F0BD381E00201C1E00202C1E0020581E0020241E00209F
:402F4000441E0020641E002010B50D4A505C0D4A515CFF223F2901D88A00D2B24CB2002C02DB4900C9B200E0FF21904201D94108021C012082430298C254039AD15410BDEE
:402F8000441E0020641E002080B582B000AF78600A1CBB1C1A80BB1C1A887B681A60BD4602B080BD80B582B000AF78600A1CBB1C1A80BB1C1A887B681A60BD4602B080BD53
:402FC00080B582B000AF304B1B78DBB21A022F4B1B78DBB213437B602D4B1B78DBB21A022C4B1B78DBB213433B603A682A4B9A4207D17B68072B04D1284B3B6004237B6038
:4030000009E03A68D4231B019A4204D17B68042B01D1224B3B60224B3A681A60214B7A681A60214B1B78DBB21A02204B1B78DBB213437B607A6880239B019A4202D07B68EE
:40304000002B01D11A4B7B601A4B7A681A601A4B1B78DBB21A02194B1B78DBB213437B607A68174B9A4206D07A68164B9A4202D07B68052B01D1144B7B60144B7A681A603B
:40308000BD4602B080BDC046D9F0FF0FD8F0FF0FDFF0FF0FDEF0FF0F580B0000580D00006C002E4074002E40DBF0FF0FDAF0FF0F0220000078002E40DDF0FF0FDCF0FF0FC0
:4030C0000F0F000005050000050F000080002E4080B582B000AF021CBB1D1A80BB1D1B88181CFFF7BBFDBD4602B080BD80B582B000AF78607B68181CFFF78CFDBD4602B078
:4031000080BDC04680B500AF00F068F8BD4680BD80B500AF00F06CF8BD4680BD80B500AF00F066F8044B181C00F024F8032000F02DF8BD4680BDC0463932000080B500AFD2
:40314000024B181C00F004F8BD4680BD3932000080B582B000AF786000F04AF87B68181C00F008F8032000F011F800F037F8BD4602B080BD80B582B000AF7860024B7A68C6
:403180001A67BD4602B080BD0000002090B585B000AF021CFB1D1A700623FB603C1C0B34FFF7C3FA031C23700B4B0B4A1268C021101C8843011CFA1D1078FA68041C944004
:4031C000221C0A431A603B1C0B331B78181CFFF7B0FABD4605B090BD0CE400E080B500AF024B802252011A60BD4680BD00E100E080B500AF024B802252011A60BD4680BD78
:4032000080E100E090B583B000AFFC1DFFF78DFA031C2370074B074A126804218A431A6030BFFB1D1B78181CFFF783FABD4603B090BDC04610ED00E080B500AF0FF088FAC9
:40324000BD4680BD002934D00123002210B488422CD301242407A14204D2814202D209011B01F8E7E400A14204D2814202D249005B00F8E7884201D3401A1A434C08A04227
:4032800002D3001B5C0822438C08A04202D3001B9C082243CC08A04202D3001BDC082243002803D01B0901D00909E3E7101C10BC7047002801D00020C04307B4024802A1B8
:4032C0004018029003BDC046D90000000029F0D003B5FFF7B9FF0EBC4243891A1847C046002941D010B4041C4C40A44601230022002900D54942002800D5404288422CD3F4
:4033000001242407A14204D2814202D209011B01F8E7E400A14204D2814202D249005B00F8E7884201D3401A1A434C08A04202D3001B5C0822438C08A04202D3001B9C08E3
:403340002243CC08A04202D3001BDC082243002803D01B0901D00909E3E7101C6446002C00D5404210BC7047002806D003DB0020C043400801E08020000607B4024802A1DB
:403380004018029003BDC046190000000029EBD003B5FFF7A7FF0EBC4243891A1847C0467047C04670B50E4B0E4D0024ED1AAD101E1CAC4204D0A300F35898470134F8E75A
:4033C0000FF046FD084B094D0024ED1AAD101E1CAC4204D0A300F35898470134F8E770BD5C2E01005C2E01005C2E0100642E010030B50023934208D0C55C0133CC18013C91
:403400002478A542F6D0281B00E0002030BD10B50023934203D0CC5CC4540133F9E710BD031C8218934202D019700133FAE7704710B501F059FA10BD10B500F0ADF810BDB0
:4034400010B50749044609780220002907D1204601F06BFA002802D1204608F0C9FE10BDEE020020FFB51E4F81B00646397800200A9D1C46002902D0082005B0F0BD0299F8
:40348000002900D10120002E27D0002C25D00028F3D101F029FA032D05D9A0894008A081A07B4000A0732B4622460399029800F019F80028E1D17D7001F01EFA0028DCD1E8
:4034C00030467E6006F082F80028D6D106F098F80028D2D101213970CFE70120CDE70000F4010020FFB5002481B01D460F460646002806D00398002803D030463843800764
:4035000001D001243CE0032DFBD91F488742F8D3FFF714FEFFF7FCFD00F098FA00282DD100F0F4FB002829D11849084600F0C6FD0004000C22D13046154E3060B7800020B5
:40354000F0803581AD1DEFB23946039800F066F804000ED1B088F2880837801AF9B280B201F09CF8002801D0012407E0E8B200F00DF900F025F907490120087000F078FA94
:40358000204605B0F0BD0000D8080000993600009C040020FC01002010B503480078012801D100F01DFF10BDFC01002070B5084B0446DA889E8800205518B54206D21D6813
:4035C000AA182260DA885118D98070BD032070BD9C04002001480089704700009C04002030B50C4B04461B7A01209C4210D20A4D2B68002B0CD0A000002902D0C3185B8B94
:403600000B80002A03D029684018407E1070002030BD00009C04002000020020F3B582B00C4600208900009001916846FFF7BEFF164D00992960002826D1002317E09A003C
:403640002968062B8B5406D2114E9619777851184F70718806E0029E9619203EB77A51184F7031892E6892195B1C5180DBB2A342E5D3002808D168460199FFF797FF00285D
:4036800002D1044A0099116004B0F0BD00020020002F0100040200207047000010B5002809D005494A68002A05D0011F08788000105800F0A1FF10BD0002002010B5044674
:4036C000FFF788FFC0B2801D0749A04202D24868002808D04968A000085800F0FFFE002801D00470001D10BD00020020F8B516460D460446FFF76EFFC0B2801DA04203D2A2
:403700000020C0430090F8BDB2B2E9B2684600F00BFF0099481C03D0024AA000526811500098F8BD00020020F1B50027FFF752FF801DC6B20B48002504680FE06078002838
:403740000AD061880098814203D32078FFF7B6FF0746002F04D1241D6D1CEDB2B542EDD33846F8BD0002002010B50446FFF732FFC1B200208C4202D2A01DFFF79FFF10BDC3
:4037800010B5002801D0FFF789FF10BD70B506460948002504680BE06178002905D062882078121D0023FFF7A1FF241D6D1CEDB2B542F1D370BD0000000200200020704737
:4037C0001CB5002469460C70142001902346054A05480CF08BFB04480068401C00D1FF2420461CBD3D380000080200203EB5124A0146FF2000230124126800290DD00129D4
:4038000014D0042908D104206946009308814B8110460CF066FB80B23EBD6846009304814381694610460CF057FBF4E768460093048143816946EBE70802002070B5458923
:40384000046841680089030000F026F806240408081D2124002004F08FFE1BE0022908D0C8B22A4621460AF02DFE2046FFF788FF10E002202A4621460AF024FE2946204627
:4038800000F018F806E000200CF024F802E020460CF0B2FB002070BD30B47446641E2578641CAB4200D21D46635D5B00E31830BC18470000014B0022DB6818470C020020AE
:4038C00070B5448905680089022803D0032809D0FF2070BD2246094C0023A46829460120A04708E0FFF7A4FD241DA2B200232946022005F04EFD002070BD00000C020020AD
:40390000704700000248002141600180418070470C02002070B50C46002186B016460391012802D0022859D116E003A9012005F088FD01281BD1039D324621462846FFF75B
:4039400066FD0095287801900220694608814E816846FFF7B5FF41E0214D002B686809D0049004A9022005F06CFD01281DD0022006B070BD002812D0298840182146FFF7EE
:4039800046FD28880024801980B228806988091D884206D12C801348FFF792FF03E00320E6E788421AD96C6018E004986860E278A378110219430B4A698000231060E35691
:4039C0005360032313815181A1788170E178C1706178417021780170042028800020C7E70C020020A80400203EB515460C46022803D004280CD000203EBD009101900220C8
:403A00006946088107484A8100680CF06AFA07E00AF058FD044B0022DB6829462046984701203EBD080200200C020020014AD160906070470C020020034801688068081A4B
:403A40000A21484300097047B404002010B5FFF765FB542204490548FFF7D9FC03490120C870002010BD00001C2F0100F405002010B5FFF747FB10BD70B5134C2368002B07
:403A800008D0207B1149C20705D04008400020738868A08070BD88680B4AA18880B29268814203D90A4D691A091802E0814202D2411A5118A160A080A0689842EAD300F022
:403AC00015F80CF02BFA70BDB4040020C0102E40FFFF000010B508461946FFF7A7FF10BD704710B5FFF780FF10BD000003480021016041608160C16070470000B4040020BF
:403B000010B502000DD0FFF7F1FF074C0321207B0843207310010A21FFF7D8FB2060002010BDFF2010BD0000B404002000B504480A21806848430209FFF7D8FF104600BD4B
:403B4000B40400200248007B8007C00F70470000B404002070B545490868CA0410430860434AD06853051843D0600868002802DA404B01221A700222904308603B480E21B2
:403B80006C30FFF70FFA394801216030FFF70AFA394C3A4D21462846FFF704FA374838496C38FFF7FFF90A20FFF7A0FA33487C380069C30B2D484030026A134254D00120CB
:403BC00000F028FA21462846FFF7ECF92B4820210830FFF7E7F9294814212030FFF7E2F92648FF21C1312830FFF7DCF92348FF212F313430FFF7D6F9204822494030FFF78A
:403C0000D1F91E4820493030FFF7CCF91E491B48491C3830FFF7C6F918481C493C30FFF7C1F916481A495030FFF7BCF9134819497438FFF7B7F9114817492C30FFF7B2F9F2
:403C40000E4816490C30FFF7ADF90C4814491030FFF7A8F909481921C9021430FFF7A2F9FFF7AEF9002070BDFF2070BD00F02E4000020B401C020020556500007C002E4041
:403C800092C90000320300002F3F00003102000010520000EC160000FA12000031D000003AE3000070B50646581C80B245086D00002408E0304600F07FF81055000A1119F2
:403CC000A41C4870A4B2AC42F4D3D80705D0D0182038D15CC47FD454C17770BD30B50A4C002100195B1E07E0541864782502545C2C430480891C89B29942F5DB994201D131
:403D0000515C018030BD000000102E4010B5FF2000F080F90F49FF2048700E481021801D41800121417001700A490020C91C4870FFF710FF04000AD100F0CCF80721064827
:403D4000FFF722F9044807211830FFF71DF9204610BD00001C020020CC112E4030B504465B1C1804450C002308E0204600F024F8241D59005B1CA4B250529BB2AB42F4D314
:403D800030BD000070B500210A4D5B1E0AE0541864782602545C344346193480001D891C80B289B29942F2DB994202D1515C4019018070BD00102E400149401800887047D4
:403DC00000102E40014A80180180704700102E4010B50B490020487000F07CF8002000F03FF9002000F02CF907210648FFF7CCF8044807211830FFF7C7F8002010BD00004C
:403E00001F020020CC112E4010B50B46062812D006DC01280CD0032801D1FFF7D9FF10BD0A28FCD00B28FAD105480078107010BDFFF76CFF10BD1146184600F02DF910BD7D
:403E400022020020F8B5204DAC6A0127A0071F4E002816DA307806280ED1286A384328621B480069F903084381B219481030FFF799F8042000F0CEF8134802212830FFF71A
:403E800083F8E00711D0062000F0C4F80F49FF20C91E48707078002802D1686B38436863094801212830FFF76FF8E0050BD53078042802D1052000F0ADF80348FF210131F0
:403EC0002830FFF761F8F8BD40F02E401F02002000002E4010B503212348FFF763F80120FFF7F6F820483038406A204C80076178800F890001431C480C38FFF753F860780C
:403F0000002808D0401E022181401820FFF73EFAC000083800E0B82081B21548FFF742F81348032109021438FFF73CF810481149B830FFF737F8452189010F48FFF732F83B
:403F40000D480321001FFFF72DF80C490C48FFF729F80B480B496038FFF724F8084801218838FFF71FF810BD70F02E4022020020D8102E4090890000041E2E40FF0F000052
:403F800058122E40209000000849087806280BD148780749002803D1486B400840004863C86A01221043C862704700001F02002040F02E4001480078704700001F0200208B
:403FC00000B50300FFF768FC080D050D0B070507090D012000BD032000BD042000BD022000BDFF2000BD0000074A9168D26889B2064B92B2994204D105498A4201D10121E8
:4040000000E000210170704780002E4033D000003FE3000010B50446FFF77AF8072C01D9FF2C01D102480470FFF76CF810BD00001F02002001494870704700001C020020A6
:4040400010B5064A012805D01921C9021046FEF7A9FF10BD1D21C902F8E7000090002E4010B50A4A141D012808D009491046FEF799FF08492046FEF795FF10BD0449104652
:40408000891CFEF78FFF0349491DF3E788002E4031D000003AE300000078074AFF2803D04C2804D9553803E01078087070474F3808701070704700001E02002010B50F4A69
:4040C000002313600E4A13600E4B18600E4801600E49012008600E490860000290600E490C4808600D4914300860FF381538506000F0BCF800F0CAF9002010BD4002002057
:404100002802002054020020580200204402002034020020C4050020380200204C020020014610B50020002910D0094B1A689C685118A14209D25868196080188A0704D06C
:404140008A07920F891A091D196010BD002010BD28020020F8B50024164E671E321F3D463168136806E01422624310328A58521C1BD0641C9C42F6D36A1C14D02C461422AE
:40418000544322460C3288500C214843FFF7C8FF3168002808510AD031680020103408517068401C70602846F8BD2546E4E73846F8BD000038020020F3B50026F64381B009
:4041C00000281BDB1E490968884217D80299002914D01B4F142204463F1D54432546396810354859401C09D0FEF792FF38682F1F4159C359994203DBFEF784FF3046FEBDD8
:40420000214608310091465801590C20704308180C220299FFF7FBF80948761C001D0068C159B14200D100260549009A091D865008684159491C4151FEF764FF0020FEBD20
:4042400034020020002803DB07490968884202D90020C043704704491422091D09685043103008587047000034020020F0B500200D4A451E0346171F50600FE0142601462A
:40428000714314680E1DA3510C461668083433511668083435511468401C635039688842ECD30020F0BD000038020020F3B50026F64381B0002841DB2349096888423DD8CB
:4042C000029900293AD0204F142204463F1D54432546396810354859401C2FD0FEF718FF3868415900292BD0211D009146580C21005971430F46C1190C220298FFF787F844
:4043000011480021001D0068761C00590C34C0190160416081600C48001D00680159B14200D100260849009A091D865008684159491E4151FEF7E6FE0020FEBD3046FEBDAB
:40434000FEF7E0FEFAE7000034020020FEB504460D4600201E49089E0860471E009001900290002C11D0486885420ED2002A0CD0002E0AD0642E08D808460C3001681C2023
:4043800068430C18207A002801D03846FEBD0120226020721846FFF7DDFE6060401C13D06681A6810A4827610C3067610179A94200D205710021684601810A462846029BBA
:4043C00000F040F82846FEBD00202072DDE700004002002038B50124009400F039F838BDFEB50027164EFF433D4600240EE01C20316860430818017A002906D04068FFF713
:4044000021FF002801D0254603E0641C3079A042EDDA681C12D01C2130684D434419FEF777FE69466068FFF741FF0546FEF76AFE002DD9D1216868468847D5E7FEBD000008
:404440004C02002038B50024009400F001F838BD1FB500220C49541E0A60002811DB496888420ED808491C220C31096850430818406801A9FFF7A0FE401C02D0002004B0D7
:4044800010BD2046FBE7000040020020F0B50021114A4D1E174611710C3F0B46BD6016E008461C2460431668041D355114680646235014680836A3551468361DA353044619
:4044C00016680A34335318301468491C255078688142E5D30020F0BD4C02002038B500210091002811DB0F49097888420DDA0D4D04010C3529680859002807D0201D08181B
:40450000694600F06DF9002801D0002038BDFEF7FFFD28680F34015D491E0155FEF7F2FD009838BD5C020020F7B582B0002502986E1E06602E48D21C024017462D4A2C461F
:4045400010460C380178106805E02301C358002B0FD0641CE4B28C42F7D3711C28D03401211D40180191039900F028F900281FD101E02646F1E71F48016820460C300F5235
:404580001C480399026820460E30115419480399026820460F3011540398784300F0A0F8144900280968085102D00024009011E001251AE00F48016801980818009900F051
:4045C0002AF9002801D0012502E00098C0190090641CE4B203988442ECD3002D05D10298066004480179491C0171284605B0F0BDFCFF000068020020F8B50D4600216A469A
:404600008C461180002839DB23490978884235DA214B04010C3319680A59002A2ED020460C300B5A801C0E5C184670438018954224D3854222D2002006E007465F43BF184E
:40464000AF4206D0401CC0B2B042F6D36046002814D0114E271DC8190C366A46294600F004F900280AD168460088012808D030682946C01900F0CFF8002803D00120F8BDC4
:404680000020F8BDFEF744FD30680F34015D491C0155FEF737FDF3E75C020020F8B50F46002400F033F8002817D10C4900220B460C334A600EE021011D680E466A501D6850
:4046C0000C36AA53B61C1D680F31AA551D68641C6A54E4B2BC42EED31A71F8BD5C020020014610B5002000290CD0C91C064B8A08596892005C888A18A24202D898685A60C5
:40470000401810BD002010BD5C020020F8B5044600200D4E009031700D01748029466846FEF744FF00280DD131460C3100980860601B001F81B26846FEF738FF0099B160E4
:40474000002800D0FF20F8BD5C020020F8B5002827DB19490978884223DA174C05010C342168485900281CD028460C30085A009028460E300E5C401C0E5420682F1DC0196A
:4047800000F064F800280CD12068002445590EE0094829460C300068C01900F03CF8002801D00120F8BD00982D18641CE4B2B442EED30020F8BD00005C02002030B50D460B
:4047C00004000BD0A800FFF78BFF6060002805D000202570C0436080002030BD012030BD70B50D46040005D0002D03D00220205E002801DA012070BDFEF78AFC0221615EA3
:4048000060688900405828606088401E6080FEF779FC002070BD70B50D46040007D0002D05D002212078615E401E814201DB012070BDFEF76DFC6088401C00B26080616813
:4048400080000D50FEF75EFC002070BD10B5040009D0227800216068FEF7E2FD0020C0436080002010BD012010BDF0B500231D46002802D00224045F0AE00120F0BD4668D4
:404880009F00F6598E4201D1012503E05B1CDBB29C42F4DA15700020F0BD00000148007870470000700200207CB505460024FEF7BFFDA8796946087000A80622294601304A
:4048C000FEF7A5FD0021684604F0B4F80C2804D0072804D01F2804D004E0022402E0042400E0272420467CBD10B500F0B7F8FFF761FBFFF765FB10BD10B503240BF0F6FFF9
:40490000002810D10BF09AFF00280CD104F0E8FD002808D100F064FA002804D104F0E4FA002800D10024204610BD70B50025044600280ED0A07901280BD8FEF779FDA0794B
:404940000028204602D002F0D3FD03E002F088FD00E00125284670BD38B504460120002C20D0617801291DD800290BD0FF25E535FEF75EFD2846FFF71FFAC0B2207007286E
:4049800003D00EE0FF25CD35F2E70020694608706846FFF729FB69460878012801D108202070002038BD70B504460120002C1FD06178012902D92278092A19D8002905D0EC
:4049C000FF25E5352078092803D004E0FF25CD35F8E707202070FEF72BFD2078082808D00020FFF73DFB21782846FFF7EBF9002070BD0120FFF734FB0721F5E770B50D4642
:404A0000040001D0002000E00548002802D0012101F0A6FF2946204602F080FA70BD00006806002038B5054600200446009022466946284600F06CFE0098002801D00BF009
:404A400037FFA878214602F0ADF8A878214602F09CF8641CE4B2052CE9D338BD38B5FFF7A9FA042819D0052817D006281AD0032842D007280AD1002069460870024601201F
:404A8000FFF7C2F9FFF796FA0128FBD138BDFEF7B9FBFFF78FFA0128F8D0FFF78BFA0128F5D138BD02F0E6F805E0FEF7ABFBFFF781FA012803D0FFF77DFA0128F5D1A1247F
:404AC00024012046FFF778F901220E4983079B0F0A70022BE5D149880029E2D0104301462046FFF76FF92046FFF766F9410849002046FFF767F938BD02F0C0F80120FFF7F0
:404B000089FA38BD76020020F8B50646002402F0F3FD0546304602F007FE00210346012632468A40174610462F401840002F03D0002801D1224394B2491CC9B20529EFD3EA
:404B40002046F8BD1CB50020694648706846FFF703FF01AA69460A20FFF756F96946042008561CBD10B50C4601F076F9002809D00179002906D0C1788078224602F07CFA57
:404B8000002010BD022010BD0148007870470000340600204030C07E002800D00120704700B500F001F800BD88214843064940186030417F491CC9B24177052901D3002188
:404BC0004177C8B2704700004806002013B501F043F904000BD001F096FC002807D0214601AA0A310620FFF70FF900201CBD02201CBD000010B50C4601F02EF900280AD072
:404C000001F081FC002806D0224604490A20FFF7FBF8002010BD022010BD00001D060020F3B581B0074601460026029802F05CFD0446002F01D0002500E0154D002D21D0DA
:404C4000284601F03FF9032C04D13946029802F075FD06463846029901F097FF032C06D0002C10D00121384601F01AFA03E03146384602F017FF284601F058FE0221284654
:404C800001F06EFEFEBD3846029901F07EFFFEBD6806002070B50446002503F005FB002801D00C2070BD2078611C02F0DFFAFF2802D01F25284670BD02F02CFBFF2804D067
:404CC0002178621C01F0D6FEF4E70725F2E710B503F0EAFA002801D00C2010BD02F09EFA002010BD70B50D46044610210BF020FD1021601806460BF01BFD334610221946D6
:404D0000204603F0FDFA102130460BF011FD02202870204604F040F870BD70B504464078217802028006850FE0781143A67809050002090D0643084601F08EF8002812D014
:404D4000022D10D0032D0ED0002E08D00179092909D0002907D0214600F0A1F870BD0089002103F04EFF20460BF0A2FD70BD0020704770B50446002503F096FA002801D070
:404D80000C2070BD2078611C02F070FAFF2802D002F0B2F900E01F25284670BD10B504F0A3F800F0F6F8002010BD10B5044600786178E2780843A178114308432179084313
:404DC0006179084305D003F061FA002803D00C2010BD122010BD204602F08AFB002010BD10B5044803F0CAFA02F090F900F004F8002010BD04060020F8B5114D00266E7059
:404E00006E736E716E76AE76EE766E75AE70EE70AE712F46EE730120B03778723F2078719B20B87100F00AFA0024204601F032FB641C2406240EF8D03E72FE71AE73F8BD9F
:404E40004806002070B505460E46084602F054FC0446304602F068FC0121A9400A46224001400A4301D0012070BD002070BD10B50446084602F058FC0121A140014201D0E9
:404E8000012010BD002010BD10B5FFF793F8032804D101F0F3FE0120FFF7BCF810BD70B5044600790D4609281CD000281AD020464030817E491C8176204601F037FDA07819
:404EC000FFF76EFE064602462946204600F00CF8002806D1A0783146FFF790FD28460BF0E7FC70BD0846FAE7F7B5054648780C468006870FC8788978000282B001436846AE
:404F00008180284601F00AFB060007D021462846049A00F091FB304605B0F0BD384600F039FC0746034601AA2946204600F0CAFA68468088231DC0B20090A878FF22049925
:404F400001F0A6FF684680883B46C2B2A878049902F04AFBDFE770B5002500242846FFF7D3FD060010D03046E040C007C00F07D02146284601F0FDFD21462846FFF750FED2
:404F8000641CE4B2052CEED36D1C2D062D0EE4D070BD10B502F0BAF8FFF72EFF0BF0F0FC002010BDF8B5002400F081F80123012800D10124104F00203E4620360425082288
:404FC00003E0002801D0002100E031460979002907D001290BD002290BD0114681402143CCB2401C0006000EEBD07C70F8BD1C43F7E72C43F5E700004806002010B5FFF759
:40500000D1FF10BD10B50B4681791943817103D08078114602F0ACFA10BD10B582798A43827102D1807802F0BBFA10BD70B5FF25D53502242846FEF7BFFE0C4A917800290E
:4050400001D0022906D1137852789A18282A01D9032402E0032900D101244105490DE00201432846FEF7AEFE70BD00007202002010B500F022F8002807D0012805D0032876
:4050800001D0042801D0002010BD012010BD014610B50020C90701D000F009F810BD014610B50020C90701D000F001F810BD10B52020FEF781FE000A10BD10B51820FEF7F7
:4050C0007BFE410501D5042010BD4007800F10BD38B5044640060CD5684601F0D5FD0220FFF78CFF072002F02DF96846007801F03FF9200613D5FFF7E0FF01280FD16846ED
:4051000001F0C2FD6846007800F09AFA072002F019F9012001F072FC0220FFF76FFF38BD10B5034A0178117002F01BF9002010BD7202002010B50446FFF7B9FF002801D0A6
:405140000C2010BDA27B01211848002A827801D00A4301E05208520082706279012A0FD0C17849084900C170207901280CD06188208802F005FF2080207904280BD00DE09B
:40518000C2780A43C270EFE7E01D02F099F90848808C208002E0E01D02F092F9054920798870204602F0ECF8002010BD48060020F40500207202002038B50478FFF777FF8F
:4051C000844201D10C2038BD002C18D0072069460870FFF74DFF012807D10121684600F08DF8012801D0092038BD6846007802F0A9F8FFF71BFF02F0F0F8012010E0FFF74A
:4052000037FF012806D1684601F03EFD6846007800F04AFA072002F095F802F0D5F80220FFF7ECFE002038BD10B5034A0178517002F076F9002010BD7202002038B56846BF
:405240000BF0CCFA002801D01F2038BD01210098C90201804180002505714571857107214173857302F08CF8009C202200212046FEF7D6F825702A460021601CFEF7D0F861
:40528000204602F06EF8204602F04AF900980BF00FFB042200210248FEF7C2F8002038BD720200200346084800B5834209D8184600F0D2FD002804D00089984201D10120AC
:4052C00000BD002000BD0000FF0E0000074A9179491C8906890E917138220A4092014907090E1143084302490840704748060020FF0E0000C006C00E70470000F8B50746D8
:405300000E4600240D4803E0002C01D0002500E005462979002905D0641C2406240EF3D00020F8BD204601F0B5F82E712046FFF7CDFF28813C700120F8BD000068060020D8
:4053400010B503F011F80222002100F003F801F085FE10BD10B5094B40074907000F090F185A595A40185043C0086421FDF7AEFF002800D1012080B210BD0000702F01006D
:40538000F7B53D20405C88B016460C46002829D030786946087200252046FFF7FBFB012800D00125204603A938300191009023460327A17E34332A46206A02F0F9FF02A897
:4053C000089900900B46019120463A4603A9243002F078FF02466846007A3070204601F045F810460BB0F0BDFFB587B00C4605461078694608723D20005D1746002826D07A
:4054000000262046FFF7C6FB012800D00126204603A93830019100902346A17E34333246206A02F0C5FF02A80090291D019120462B1D03A924300A9A02F044FF020068467D
:40544000007A388002D1204601F010F810460BB0F0BDF7B53C20405C88B015460C4600280CD0287869460872002806D000262046FFF790FB012803D003E01F200BB0F0BD23
:405480000126204603A938300191009023460327E17E34333246E06902F08AFF02A8089900900B46019120463A4603A9243002F03BFF02466846007A2870204600F0E0FF87
:4054C0001046DBE7FFB505463C20405C87B016460C46002810D0084601F020F801280BD0308869460883002809D000272046FFF751FB012805D005E000200BB0F0BD022006
:40550000FBE70127204602A93830019100902346E17E34333A46E06902F04AFF06A80090291D019120462B1D02A924300A9A02F0FBFE02466846008B30806846008BA870BF
:40554000000AE870204600F09BFF1046D5E770B50D460446FFF71EFB01280AD0E87AA97A00020143A07801F049FC012808D0002070BD00222421204602F04CFC242070BD14
:4055800028214C200155204600F09AFB282070BD002801D0002000E003484030C07F012800D0002070470000680600200146002049070ED50021084B03E0002901D0002222
:4055C00000E01A461279022A04D0491C0906090EF3D0704701207047680600200146002049070ED50021084B03E0002901D0002200E01A461279022A04D0491C0906090E12
:40560000F3D07047012070476806002010B5044680346068002803D00BF05EF90020606010BD4030417070474030817070474030017070470171704792001018C1667047BC
:4056400070B53C2501F0F4F8040004D020460021433001F08DFB2946204600F0C0FB002C02D0A07801F076F870BD000010B5002801D0002000E00348002802D0008903F0DB
:4056800007FB10BD6806002010B5002801D0002000E00448002804D00179072901D100F041F810BD6806002010B501F0C1F8002802D0807801F04EF810BD0020704700004B
:4056C00070B50546008A00281ED010491122897A1140C90618D5294640314A8A098A521C4A4392B2D10800D10121540801E0621A94B2A042FBD9FFF7D1F8012804D1298A87
:40570000A878224601F058FC70BD0000F405002000230B60052A04D292001018C26E0A60C366704738B5044600200090A079002814D14020015D052901D00E290ED1684601
:405740000BF05CF8002809D12046009902F04AFB03481021C28A2046FFF754FC38BD0000F405002010B50B4604460146184602F019F8002802D020460BF0A4F810BD13B58C
:40578000044601AA11460620FEF73EFB6846818861811CBD002800D10220704770470000F8B504462346401D543300909A1EA078911E01F078FA25464035A88A298A800053
:4057C000FDF784FD401E81B2688A884203D96982A07801F04AFF20460021433001F0C8FA8020FEF7E9FAE88102F0BEFDE989891C8AB26179FFF7AEFD01F030FC02F0B4FD05
:405800002A8A6179FFF7A6FD074601F019FC688A00280BD0FF26F1363046FEF7CDFA0321090201433046FEF7CDFA02E0002001F00AFFFF206130FEF7BFFA6E8A002E0BD07B
:4058400070431049FDF7A2FD0004000C01D0401C80B20D49488002E00B4800214180288A704381B2A07801F069FE2837B9B2204602F08AFBE98AA07801F0B8FDA07801F0FC
:40588000A7F9F8BD71020000760200207FB504468034616805460E46183108226846FDF7B6FD31462031082202A8FDF7B0FD102168460AF03DFF6068102108300AF038FF72
:4058C00060682B46083024331022694602F018FD7FBD10B504460821FFF79FFB10212046FFF79BFB207905281FD006281DD008281AD12189002003F043F9072020712046CF
:40590000FFF748F9014620464030012913D00E21017000210176204600F028FF2046FFF775FE2046FFF7CCFE10BD20890122002103F00AF9E1E70521EAE70000FFB581B008
:405940001F4604460821FFF768FB10212046FFF764FB2079082803D0092804D0042203E00422012501E009220025204600F0C2FD264600204036307022712046FFF746FEF9
:405980000398002D02D0012808D00BE001280AD120890022029903F0D7F804E02189029803F0EEF8012700203076012F04D0204600F0DCFE05B0F0BD02983073204602F01B
:4059C00055FA054605480121C28A2046FFF71AFB002DEFD109202071ECE70000F405002070B50C460546FFF7D5F8012809D108212846FFF712FB0023012221462846FFF71B
:405A00009DFF70BD10B5044600F074FD2046FFF7FDFD00214034217010BD70B505461A24FFF7B8F8012809D108212846FFF7F5FA0023012221462846FFF780FF70BD000054
:405A4000F8B50446002000900E4668460AF0D6FE002801D00D20F8BD8420005908212030009D00F0F4F920460421383000F0EFF9002E02D1204600F07BFD2946204602F083
:405A800041F90E480821C28A2046FFF7BBFA204600F0D3FE25464035002808D0204600F023F8002801D0092028700020F8BD08202870204600F03AFFF7E70000F405002083
:405AC000014610B540310A460978082906D0092907D00A2901D100F091F810BD0B20107010BD00F001F810BD70B50446007925464035052805D0062803D008280FD00C20C9
:405B000070BD03220621204602F084F90D480821C28A2046FFF776FA1120287010E006202873204602F0A2F90646AA8A0A20424301212046FFF766FA002E01D1092020714D
:405B4000002070BDF405002038B504460020009068460AF053FE002801D00D2038BD2046009D00F08BF908202071204600F000FD2946204602F0F8F800213D2001550F2087
:405B800040210855204600F0D1FE002038BD00B5024600F0AFFC10214032117000BD10B50446FEF7F7FF012809D04020005D112805D100231A4606212046FFF7BFFE10BD1C
:405BC00010B5FFF786FE10BD38B504460021684600910AF013FE00280CD12046009902F03AF905480821C28A2046FFF70BFA0D204034207038BD0000F405002038B5044635
:405C00000021684600910AF0F9FD002801D00D2038BD2046009902F013F905480821C28A2046FFF7EFF90C2040342070002038BDF405002000787047F8B50025002801D09E
:405C4000002400E01A4C002C28D0204600F05BFC002823D0207903281CD005281CD026464036B18AA07801F077FCB078012815D10021204601F0B3FD274680373868002821
:405C800002D00AF029FE3D600020B0702079072805D007E0042000E006202071F8BD2046FFF70EFD0221204600F05AFEF8BD00006806002010B54C22115400F046F810BD12
:405CC00010B50446FF21FFF7A8F909202071A07801F072FC10BD000038B5FF216A461180002801D0002400E0064C002C08D011460620FEF789F8684601882046FFF73FFD7D
:405D000038BD00006806002010B504468079002809D022214C200155FF212046FFF77DF9204600F012F810BD10B5037902464032002B03D01173092B02D003E0002100E04C
:405D40002221117300F001F810BDFEB504460089002701902781207926464036002817D0012815D002280AD112E002AA6946204601F006FD002807D100980AF0A3FD2046E4
:405D800001F026FD0028F0D02046FEF74BFEB776254680352868002802D00AF09DFD2F606868002802D00AF097FD6F60317B002902D0019800F044F8A078002100F01CFF72
:405DC0002046FFF7BDFAA07801F002F8A07800F0C1FC0B20FFF712F900F000FCFEBD70B50E46054602F0BCFA044606702846FEF7D1FE014601204140204661700C3000F04B
:405E0000A0FF002D10D02889608028464030C1782171002E10D169796171018AE180418A2181808A608107E01820FDF7C5FFC005C00F207100206080204602F04AFE70BDAC
:405E40000A4610B50146002002F03AFF10BD10B50AF04AFA10BD000000B50146FFF74AFA002801D0002000E00348002802D002898A4200D0002000BD6806002038B50446A1
:405E800080346068002806D168460AF0C7FC002801D100986060606838BD000010B5014600F03CFB0128887802D0FEF77DFE10BD88214843024940186030007F10BD0000CF
:405EC0004806002070B5054604464035A87F012811D1A1788820084A484380186030067F3046FEF7AFFF002805D10220A877A078314601F021F870BD4806002010B50E4CDD
:405F0000E079002816D0FFF726F80C48827FC17F808B00F06BFB01280CD10020E07100F0BCFE0446AC20FDF747FF010B02D0204600F00EFA10BD0000F806002048060020EA
:405F400070477047490510B5490F0B00FDF7A4FC060704080C0C0F073E21FFF7ABFE10BD0821FFF7E1FE10BDFFF7EFFE10BDFFF7CBFE10BDF8B507460025002D01D000264D
:405F800000E0204E00F064FE3046403044890021418100F067FE304600F0B5FA01282BD1A00702D52846FFF747FEE00602D52846FFF792FEA00601D5FEF7CDFF600601D5CB
:405FC00000F0C8FA200602D5284600F01DF8600702D5284600F0FAF9380402D52846FFF753FB780402D52846FFF740FBE00703D021463046FFF7A6FF6D1C2D062D0EBCD084
:40600000F8BD000068060020F8B5002801D0002400E0204C002C39D025464035A878012834D1E98AA07801F0E1F92046FEF7B2FD01282BD002F098F92A8A6179FFF78AF996
:40604000064600F0FDFF2836B1B2204601F09CFFE98AA07801F0CAF9FF206130FDF7ACFE6E8A0D4F0146002E11D0304648430B49FDF78CF90004000C01D0401C80B27880C9
:40608000288A704381B2A07801F058FAF8BD0020F5E7000068060020760200207102000070B50D46124A010001D0002401E014462034002C1BD0204600F030FA01280AD1AF
:4060C0008820484380186030007FFEF7BBFE002801D101F055FE20464030817E491B8176204600F023FC2089294602F08AFD70BD4806002070B503460088FFF7ADFE04006E
:4061000013D000F000FA00280FD02079092819D02546997840352973204601F0A7FE0646A878012803D0AA8A02E0022070BDEA880A20424301212046FEF764FF002E01D181
:4061400009202071002070BD0EB5002217216B460292198100905A810120029B00990AF02DFC0EBDF8B5184E0024F079002820D10025AC20FDF720FE000B21E0204600F04E
:4061800007FEFDF719FE07462A46214600F02EFA01280FD00D48012187838577C477F171002D01D0002000E02030002801D000F0BDFBF8BDAC20FDF7FFFD000B641CE4B2F0
:4061C0000028DBD1F8BD0000F80600204806002010B50088FFF740FE002809D0014640310C460978082905D00B2903D00C2010BD022010BDFFF778FC002801D0092020706C
:40620000002010BD70B503460088FFF725FE040008D0254640352878082805D00B2803D00C2070BD022070BD8420005910220830991CFDF7ECF82046FFF728FB2878082810
:4062400004D02046FFF7DAFC002801D00A202870204600F06BFB002070BD000010B50C46002121700088FFF7F7FD03000BD000F04AF9002807D009481121807A0840C0067E
:4062800003D4112010BD022010BD022020701A8A1889002102F030FD002010BDF4050020F8B50F46002100910088FFF7D5FD040012D000F028F900280ED0E079410641D427
:4062C000617E02264A07002A08DB8907402500291ADA2843E07135E00220F8BD02F040F80021017021894180A1898180217E4170E189C1803E7005460178134802F062FA17
:40630000284602F09DFC1DE0204600F00DF9012806D068460AF072FA002803D00720F8BD2A20F8BDE07900992843E071204601F0C7FD607E0421304360760448C28A20460F
:40634000FEF760FE0020F8BD1D040000F40500203EB500220F236C460292238100910190628169460EC900200AF028FB3EBD000070B5054600F05CFA040021D00320207168
:40638000254600264035EE76E6702046FFF708FA01F01AF80920FEF731FEA07800F006FD0121204600F0DCFA2E706E70AE7000212046FFF714FD0449887B401C887370BD1A
:4063C000284601F0F9F870BD4806002010B5002801D0002400E00A4C002C0FD020464030417802290AD1002141702046FEF7D2FB002803D10221204600F0B2FA10BD000012
:406400006806002070B503460D460088FFF724FD04000BD000F077F8002807D012481121807A0840C00603D4112070BD022070BD20464030418A008A491C41430804C10C2C
:406440005888884201D2122070BD20822079072802D12046FFF734F9022028702089002102F072FC002070BDF4050020016A491C016204D1817E491C4906490E8176704770
:40648000C169491CC16104D1C17E491C4906490EC176704770B500250646002801D0002400E0114C002C1CD0882200212046FCF7B7FFA6700020264620714036307020468D
:4064C00000F018F8204601F07FF9084820820848B577807A1121084000D001202075012070BD002070BD000068060020B80B0000F4050020002101628176C161C17620303C
:406500000177417770470079002805D0012803D0022801D001207047002070474030807F002800D00120704740300078002807D0012805D0052803D00E2801D00120704755
:406540000020704710B5807801F0EEF8002800D0012010BD10B500F0A0FB0446AC20FDF72BFC010B02D02046FFF7F2FE10BD000070B5054604464035A87F002823D1FF20C1
:406580006075A0788821144A484380186030417F8823491CC9B24177A078584380186030052901D300214177A0788821484380186030467F0677A1783046FEF743FC0028DA
:4065C00002D00120A87770BD0220A877A078314600F0B2FC70BD0000480600200020401C0006000EFBD0002070470000F0B515468207920F85B0C004C00E02926A469080DC
:40660000002D01D0002400E0514C002C29D0084600F0BEFB03906846808800280BD00298012845D0022843D003280CD03D20005D012872D086E00398FDF7BEFB01462046B7
:40664000FFF79DF87EE00020029002A80AF0B6F8002807D03D20005D012876D12046FFF705FF72E06846029E8388324600210398FDF718FB0398FDF79FFB01462046FFF7F2
:406680007EF8284600F0B0FA01AA21463046FEF777FE002806D030460AF000F93D204C21085528E0F5773146204601F0DBF94CE000200090278968460AF070F8002802D030
:4066C000002005B0F0BD6846009E8388321D00210398FDF7E7FA0398FDF76EFB01462046FFF74DF8284600F07FFA25464035287E00280CD103E02046FFF7E2FA25E001AAD4
:4067000021463046029BFEF76FFE002806D030460AF0BAF83D202873EDE710E00298FFF73DF8390A000101433770717068468088B070000AF0703046FFF706FD05E02046D2
:40674000FFF794FE284600F04FFA0120B9E700006806002010B5044A917B002901D0491E9173FFF797FE10BD48060020F8B5074606464037B87F00283DD0B07888210090C7
:4067800048431F4945186035287F0099FEF76FFB012831D0287F401CC4B2052C00D300240020B877FF276F772F77A87702460146009800F041FD717DFF2903D0304600F0C6
:4067C000C4FF777501F0DCFA00252F462246694630460097FEF79CFF0099002902D03046FEF75DFB641CE4B2052C00D300246D1CEDB2052DEAD3F8BD0320B877F8BD00006D
:406800004806002010B502460021084B03E0002901D0002000E018460479944204D0491C0906090EF3D0002010BD00006806002000B50120FFF7E6FF00BD10B5044601F0D0
:406840008FFD2189018080346168416061682831816002F0AFF910BDF7B50646087982B00C46092807D0A078F0770846FFF756FE012806D010E030460AF024F8022005B06B
:40688000F0BDA1788820284A484380186030007FFEF7D8FA012810D0A078FEF779FE01280BD037780121304601F017FA25462035062F36D00B2F0FD107E06846027C214696
:4068C0003046FEF74FFF0D20D9E72046FEF762F9012801D1002028772046FFF7DFFA054604AA21463046FEF7B4FD01205F2108556946087C0090A07833463A46294600F0A0
:40690000C7FA69460A7CA0780323294600F06CFEA0782946FEF772F8304609F0D3FF0020ADE70120D7E700004806002010B502464032937F0021002B03D1927E002A00D077
:406940000121064AD279002A00D000210279092A00D10121807800F063FE10BDF806002070B50C460646FEF715F9002814D1012C0ED935464035A87800280DD16878022863
:406980000AD03079092807D03046FFF7DBFD0446204600F080FD70BD0124F9E770B50D4601280BD0082808D1A8241146B020FDF709FA29462046FDF705FA70BD2020FAE734
:4069C00010B501460820FDF7FDF910BD10B50446FF20F130012C01D1FF20D530002200F06AFE1020FDF7E8F90349A043088001461020FDF7E7F910BD7A02002010B5044641
:406A00001020FDF7D9F90449A043088001461020FDF7D8F910BD00007A02002010B50446012802D0082C07D102E0FF20D53001E0FF20F13000F034FE1020FDF7BDF904497D
:406A40002043088001461020FDF7BCF910BD00007A02002010B504461020FDF7ADF904492043088001461020FDF7ACF910BD00007A020020F8B507460120B84085B2144674
:406A80000E46012229467C2000F015FE32462946782000F010FE6078217800020143E078A5780002054360792679000206430C2047430D2080013C182046FDF783F9241DCC
:406AC00029462046FDF77EF9201D3146FDF77AF9F8BD8B00034310B5D10191201943C000FDF770F910BD000070B505460C46407829780002014341200001FDF763F9E878B4
:406B0000A978000201430A48FDF75CF960782178000201438320C000FDF754F9E078A1780002014302480830FDF74CF970BD00001404000070B50D46044681B201208002A9
:406B4000FDF740F9210C0448FDF73CF981202946C000FDF737F970BD0404000070B5054600242846FDF728F9641CA4B2102CF8D370BD10B50C460146B020FDF723F9FF209F
:406B800021462D30FDF71EF910BD10B50C460146B020FDF717F9204600F0B8FD0021FDF711F910BD70B50C46054600F005F821462846FFF7DEFF70BD10B50C460146B0205E
:406BC000FDF700F9FF2021462930FDF7FBF810BD10B50146B020FDF7F5F8FF20002220211D3000F068FD10BD010210B54D310020FDF7E8F810BD000010B504020029014625
:406C000008D0B020FDF7DEF8214675310020FDF7D9F810BDB020FDF7D5F8512000214001FDF7D0F800210348FDF7CCF821467631ECE70000240A000010B554210020FDF782
:406C4000C1F810BD10B553210020FDF7BBF810BD10B5034908884880FFF7D0FE10BD00007A02002010B502484088FFF7F3FE10BD7A02002010B5FDF787F910BD10B55221C6
:406C80000020FDF79FF810BD10B504461820FDF793F88004400F207010BD10B5B020FDF78BF8C0B210BDF8B50E4601461C461546B020FDF787F8FF20E930FDF77DF80746E5
:406CC000FF200130FDF778F83080FF200930FDF773F82880FF200530FDF76EF8208079070698490F0170F8BD10B5C820FDF764F810BD10B50C46002812D05820FDF75CF83C
:406D00002070000A60705C20FDF756F8A070000AE0706020FDF750F82071000A607110BDFF20C130FDF748F82070000A6070FF20C530FDF741F8A070000AE070FF20C9305B
:406D4000E8E770B504466820FDF736F806466C20FDF732F805467020FDF72EF82670310A6170A570290AE1702071000A607170BD10B50446012905D01820FDF71DF8C00B52
:406D8000207010BD4820FDF717F88007C00FF7E70120C002704710B50C460146B020FDF711F80321A0014902401810BD8821074B414310B5C918FF2260314A770A770022A2
:406DC0008A77114600F038FA10BD00004806002088225043074A10B58018FF21603041770177002181770448418EFF201D3000F057FC10BD48060020F405002010B50C46C5
:406E00000146B020FCF7DEFFFF202530FCF7D4FF0222214600F002F810BD000010B50023884201D8081A03E00024E443201A4018044980B2884201D8824200D90123184641
:406E400010BD0000FF7F0000F8B503465078167800020643D07895780002054350791779000288240743002900D098241946B020FCF7A8FF31462046FCF7A4FF201D2946A3
:406E8000FCF7A0FF204608303946FCF79BFFF8BDFFB581B014460D4606460A9FFFF77BFF3B460021049AFCF76DFF02484019845505B0F0BD7E02002070B506460D461124D4
:406EC0002520A40108214001FCF77CFF2B46324600212046FCF756FF70BD70B5212405466401FFF7AFFE10232A4600212046FCF749FF70BD10B504464078217800020143F6
:406F00008F20C000FCF75EFFE078A178000201430148FCF757FF10BD7C04000010B50C460146B020FCF74EFF802021460143FF202930FCF747FF10BD70B50D460146B02036
:406F4000FCF740FFFF241D342046FCF735FF01090901FF202943013001432046FCF732FF70BDF8B500242646012807D0032802D0052808D105E002240A2604E004240C265A
:406F800001E004240D26492701463F013846FCF719FF25204001FCF70FFFC5B228462042F7D0252031464001FCF70CFF00213846FCF708FF2846F8BD70B50D4604460146C0
:406FC0001646B020FCF7FEFE512029464001FCF7F9FE31460648FCF7F5FE032189030820FFF71CFD210275310020FCF7EBFE70BD240A000070B50D4604460146B020FCF7ED
:40700000E1FEFF2029461930FCF7DCFE21024B310020FCF7D7FE70BD70B5491E8CB205460146B020FCF7CEFEFF2021461930FCF7C9FE29024C310020FCF7C4FE70BD0000FB
:40704000054910B5884200D908460146FF206130FCF7B8FE10BD0000FF0F0000054910B5884200D908460146FF206530FCF7AAFE10BD0000FF0F000070B5882514460029C7
:4070800000D098250146B020FCF79CFE2846FCF793FE2070000A6070281DFCF78DFEA070000AE07028460830FCF786FE2071000A607170BD10B51446024611200B468001F6
:4070C0000021FCF74BFE012C01D1FFF7B5FD10BD10B504460920C001FCF76EFE2070000A60700448FCF768FEA070000AE070FFF7A3FD10BD840400000121814010B589B220
:4071000000227C2000F0D7FA10BD000070B5FF210120FFF75BFCFF210820FFF757FC3020FFF76CFC80210020FCF74CFE002211460320FCF769FE374DFF20A98DD530FCF74C
:4071400041FE0024FF26F1362146B020FCF73AFE298F3046FCF736FE2046FFF739FE641C2406240EF0D0FF20A98FF930FCF72AFE28481030044600F073F9204600F0B8F982
:4071800000F04CF8234CB82040346188FCF71AFEA188BC20FCF716FEE188C420FCF712FEFF20698EE130FCF70DFEA12000210001FCF708FE3920FFF74DFCFFF743FD93200E
:4071C0000721C000FCF7FEFDFFF736FDE020FFF7C5FCE820FFF7C2FCF020FFF7BFFC0020FEF7AEF8618A0C48FCF7ECFD0A482821001DFCF7E7FDFF210131AC20FCF7E2FD07
:40720000832000218000FCF7DDFD5B210020FCF7D9FD70BDF4050020140A000010B500217C20FCF7CFFD00217820FCF7CBFD74210020FCF7C7FD10BD70B50D46014614466D
